{
  "_format": "hh-sol-artifact-1",
  "contractName": "BlacklistManager",
  "sourceName": "contracts/BlacklistManager.sol",
  "abi": [
    {
      "inputs": [
        {
          "internalType": "address",
          "name": "_governor",
          "type": "address"
        }
      ],
      "stateMutability": "nonpayable",
      "type": "constructor"
    },
    {
      "anonymous": false,
      "inputs": [
        {
          "indexed": false,
          "internalType": "address",
          "name": "token",
          "type": "address"
        },
        {
          "indexed": false,
          "internalType": "uint256",
          "name": "id",
          "type": "uint256"
        },
        {
          "indexed": false,
          "internalType": "bool",
          "name": "blacklisted",
          "type": "bool"
        }
      ],
      "name": "AssetBlacklistSet",
      "type": "event"
    },
    {
      "anonymous": false,
      "inputs": [
        {
          "indexed": false,
          "internalType": "address",
          "name": "token",
          "type": "address"
        },
        {
          "indexed": false,
          "internalType": "bool",
          "name": "blacklisted",
          "type": "bool"
        }
      ],
      "name": "CollectionBlacklistSet",
      "type": "event"
    },
    {
      "anonymous": false,
      "inputs": [
        {
          "indexed": true,
          "internalType": "address",
          "name": "previousOwner",
          "type": "address"
        },
        {
          "indexed": true,
          "internalType": "address",
          "name": "newOwner",
          "type": "address"
        }
      ],
      "name": "OwnershipTransferred",
      "type": "event"
    },
    {
      "anonymous": false,
      "inputs": [
        {
          "indexed": false,
          "internalType": "address",
          "name": "account",
          "type": "address"
        }
      ],
      "name": "Paused",
      "type": "event"
    },
    {
      "anonymous": false,
      "inputs": [
        {
          "indexed": false,
          "internalType": "address",
          "name": "account",
          "type": "address"
        }
      ],
      "name": "Unpaused",
      "type": "event"
    },
    {
      "inputs": [
        {
          "internalType": "address",
          "name": "",
          "type": "address"
        },
        {
          "internalType": "uint256",
          "name": "",
          "type": "uint256"
        }
      ],
      "name": "assetBlacklist",
      "outputs": [
        {
          "internalType": "bool",
          "name": "",
          "type": "bool"
        }
      ],
      "stateMutability": "view",
      "type": "function"
    },
    {
      "inputs": [
        {
          "internalType": "address",
          "name": "",
          "type": "address"
        }
      ],
      "name": "collectionBlacklist",
      "outputs": [
        {
          "internalType": "bool",
          "name": "",
          "type": "bool"
        }
      ],
      "stateMutability": "view",
      "type": "function"
    },
    {
      "inputs": [
        {
          "internalType": "address",
          "name": "_assetAddress",
          "type": "address"
        },
        {
          "internalType": "uint256",
          "name": "_assetId",
          "type": "uint256"
        }
      ],
      "name": "isBlacklisted",
      "outputs": [
        {
          "internalType": "bool",
          "name": "",
          "type": "bool"
        }
      ],
      "stateMutability": "view",
      "type": "function"
    },
    {
      "inputs": [],
      "name": "owner",
      "outputs": [
        {
          "internalType": "address",
          "name": "",
          "type": "address"
        }
      ],
      "stateMutability": "view",
      "type": "function"
    },
    {
      "inputs": [],
      "name": "pause",
      "outputs": [],
      "stateMutability": "nonpayable",
      "type": "function"
    },
    {
      "inputs": [],
      "name": "paused",
      "outputs": [
        {
          "internalType": "bool",
          "name": "",
          "type": "bool"
        }
      ],
      "stateMutability": "view",
      "type": "function"
    },
    {
      "inputs": [],
      "name": "renounceOwnership",
      "outputs": [],
      "stateMutability": "nonpayable",
      "type": "function"
    },
    {
      "inputs": [
        {
          "internalType": "address",
          "name": "_assetAddress",
          "type": "address"
        },
        {
          "internalType": "uint256",
          "name": "_assetId",
          "type": "uint256"
        },
        {
          "internalType": "bool",
          "name": "blacklisted",
          "type": "bool"
        }
      ],
      "name": "setAssetBlacklist",
      "outputs": [],
      "stateMutability": "nonpayable",
      "type": "function"
    },
    {
      "inputs": [
        {
          "internalType": "address",
          "name": "_assetAddress",
          "type": "address"
        },
        {
          "internalType": "bool",
          "name": "blacklisted",
          "type": "bool"
        }
      ],
      "name": "setCollectionBlacklist",
      "outputs": [],
      "stateMutability": "nonpayable",
      "type": "function"
    },
    {
      "inputs": [
        {
          "internalType": "address",
          "name": "newOwner",
          "type": "address"
        }
      ],
      "name": "transferOwnership",
      "outputs": [],
      "stateMutability": "nonpayable",
      "type": "function"
    },
    {
      "inputs": [],
      "name": "unpause",
      "outputs": [],
      "stateMutability": "nonpayable",
      "type": "function"
    }
  ],
  "bytecode": "0x608060405234801561001057600080fd5b50604051610ae2380380610ae283398101604081905261002f91610174565b61003833610054565b6000805460ff60a01b1916905561004e816100a4565b506101a4565b600080546001600160a01b038381166001600160a01b0319831681178455604051919092169283917f8be0079c531659141344cd1fd0a4f28419497f9722a3daafe3b4186f6b6457e09190a35050565b6000546001600160a01b031633146101035760405162461bcd60e51b815260206004820181905260248201527f4f776e61626c653a2063616c6c6572206973206e6f7420746865206f776e657260448201526064015b60405180910390fd5b6001600160a01b0381166101685760405162461bcd60e51b815260206004820152602660248201527f4f776e61626c653a206e6577206f776e657220697320746865207a65726f206160448201526564647265737360d01b60648201526084016100fa565b61017181610054565b50565b60006020828403121561018657600080fd5b81516001600160a01b038116811461019d57600080fd5b9392505050565b61092f806101b36000396000f3fe608060405234801561001057600080fd5b50600436106100c95760003560e01c80638456cb5911610081578063e75714831161005b578063e75714831461017e578063f0a2aaea14610191578063f2fde38b146101b457600080fd5b80638456cb59146101485780638da5cb5b146101505780639934acb01461016b57600080fd5b80633fa1f328116100b25780633fa1f3281461011b5780635c975abb1461012e578063715018a61461014057600080fd5b8063332902bd146100ce5780633f4ba83a14610111575b600080fd5b6100fc6100dc366004610893565b600260209081526000928352604080842090915290825290205460ff1681565b60405190151581526020015b60405180910390f35b6101196101c7565b005b6101196101293660046108bd565b610230565b600054600160a01b900460ff166100fc565b610119610354565b6101196103b8565b6000546040516001600160a01b039091168152602001610108565b610119610179366004610860565b61041a565b6100fc61018c366004610893565b61052d565b6100fc61019f36600461083e565b60016020526000908152604090205460ff1681565b6101196101c236600461083e565b61058d565b6000546001600160a01b031633146102265760405162461bcd60e51b815260206004820181905260248201527f4f776e61626c653a2063616c6c6572206973206e6f7420746865206f776e657260448201526064015b60405180910390fd5b61022e61066f565b565b6000546001600160a01b0316331461028a5760405162461bcd60e51b815260206004820181905260248201527f4f776e61626c653a2063616c6c6572206973206e6f7420746865206f776e6572604482015260640161021d565b6001600160a01b0383166102e05760405162461bcd60e51b815260206004820152601660248201527f426c61636b4d3a3a73657441423a20696e76616c696400000000000000000000604482015260640161021d565b6001600160a01b0383166000818152600260209081526040808320868452825291829020805460ff19168515159081179091558251938452908301859052908201527f320cca1afd98e6cfb3f24d4dadeb704fdfefe50f8ac3d4932ad4a4fc37ccd81d9060600160405180910390a1505050565b6000546001600160a01b031633146103ae5760405162461bcd60e51b815260206004820181905260248201527f4f776e61626c653a2063616c6c6572206973206e6f7420746865206f776e6572604482015260640161021d565b61022e6000610715565b6000546001600160a01b031633146104125760405162461bcd60e51b815260206004820181905260248201527f4f776e61626c653a2063616c6c6572206973206e6f7420746865206f776e6572604482015260640161021d565b61022e61077d565b6000546001600160a01b031633146104745760405162461bcd60e51b815260206004820181905260248201527f4f776e61626c653a2063616c6c6572206973206e6f7420746865206f776e6572604482015260640161021d565b6001600160a01b0382166104ca5760405162461bcd60e51b815260206004820152601660248201527f426c61636b4d3a3a73657443423a20696e76616c696400000000000000000000604482015260640161021d565b6001600160a01b038216600081815260016020908152604091829020805460ff19168515159081179091558251938452908301527f8adaacb7aabde836540ffb9ba47232bbdd7fea6c29be32f2f42ee31556b3bec5910160405180910390a15050565b6001600160a01b0382166000908152600160209081526040808320546002835281842085855290925282205460ff918216911661057460005460ff600160a01b9091041690565b8061057c5750815b806105845750805b95945050505050565b6000546001600160a01b031633146105e75760405162461bcd60e51b815260206004820181905260248201527f4f776e61626c653a2063616c6c6572206973206e6f7420746865206f776e6572604482015260640161021d565b6001600160a01b0381166106635760405162461bcd60e51b815260206004820152602660248201527f4f776e61626c653a206e6577206f776e657220697320746865207a65726f206160448201527f6464726573730000000000000000000000000000000000000000000000000000606482015260840161021d565b61066c81610715565b50565b600054600160a01b900460ff166106c85760405162461bcd60e51b815260206004820152601460248201527f5061757361626c653a206e6f7420706175736564000000000000000000000000604482015260640161021d565b6000805460ff60a01b191690557f5db9ee0a495bf2e6ff9c91a7834c1ba4fdd244a5e8aa4e537bd38aeae4b073aa335b6040516001600160a01b03909116815260200160405180910390a1565b600080546001600160a01b038381167fffffffffffffffffffffffff0000000000000000000000000000000000000000831681178455604051919092169283917f8be0079c531659141344cd1fd0a4f28419497f9722a3daafe3b4186f6b6457e09190a35050565b600054600160a01b900460ff16156107d75760405162461bcd60e51b815260206004820152601060248201527f5061757361626c653a2070617573656400000000000000000000000000000000604482015260640161021d565b6000805460ff60a01b1916600160a01b1790557f62e78cea01bee320cd4e420270b5ea74000d11b0c9f74754ebdbfc544b05a2586106f83390565b80356001600160a01b038116811461082957600080fd5b919050565b8035801515811461082957600080fd5b60006020828403121561085057600080fd5b61085982610812565b9392505050565b6000806040838503121561087357600080fd5b61087c83610812565b915061088a6020840161082e565b90509250929050565b600080604083850312156108a657600080fd5b6108af83610812565b946020939093013593505050565b6000806000606084860312156108d257600080fd5b6108db84610812565b9250602084013591506108f06040850161082e565b9050925092509256fea2646970667358221220dc1c9a81b3cb30492d816822dc8a100bfc7ef51b427f3c1ce78340a4cb71b76064736f6c63430008070033",
  "linkReferences": {},
  "deployedLinkReferences": {}
}