{
  "_format": "hh-sol-artifact-1",
  "contractName": "FeeManager",
  "sourceName": "contracts/FeeManager.sol",
  "abi": [
    {
      "inputs": [
        {
          "internalType": "address",
          "name": "_governor",
          "type": "address"
        },
        {
          "internalType": "address",
          "name": "_feeTo",
          "type": "address"
        }
      ],
      "stateMutability": "nonpayable",
      "type": "constructor"
    },
    {
      "anonymous": false,
      "inputs": [
        {
          "indexed": false,
          "internalType": "address",
          "name": "token",
          "type": "address"
        },
        {
          "indexed": false,
          "internalType": "uint256",
          "name": "id",
          "type": "uint256"
        },
        {
          "indexed": false,
          "internalType": "uint64",
          "name": "fee",
          "type": "uint64"
        },
        {
          "indexed": false,
          "internalType": "bool",
          "name": "enabled",
          "type": "bool"
        }
      ],
      "name": "AssetFeeOverride",
      "type": "event"
    },
    {
      "anonymous": false,
      "inputs": [
        {
          "indexed": false,
          "internalType": "address",
          "name": "token",
          "type": "address"
        },
        {
          "indexed": false,
          "internalType": "uint64",
          "name": "fee",
          "type": "uint64"
        }
      ],
      "name": "BaseFeeSet",
      "type": "event"
    },
    {
      "anonymous": false,
      "inputs": [
        {
          "indexed": false,
          "internalType": "address",
          "name": "token",
          "type": "address"
        },
        {
          "indexed": false,
          "internalType": "uint64",
          "name": "fee",
          "type": "uint64"
        },
        {
          "indexed": false,
          "internalType": "bool",
          "name": "enabled",
          "type": "bool"
        }
      ],
      "name": "CollectionFeeOverride",
      "type": "event"
    },
    {
      "anonymous": false,
      "inputs": [
        {
          "indexed": false,
          "internalType": "address",
          "name": "feeTo",
          "type": "address"
        }
      ],
      "name": "FeeToSet",
      "type": "event"
    },
    {
      "anonymous": false,
      "inputs": [
        {
          "indexed": true,
          "internalType": "address",
          "name": "previousOwner",
          "type": "address"
        },
        {
          "indexed": true,
          "internalType": "address",
          "name": "newOwner",
          "type": "address"
        }
      ],
      "name": "OwnershipTransferred",
      "type": "event"
    },
    {
      "inputs": [
        {
          "internalType": "address",
          "name": "",
          "type": "address"
        },
        {
          "internalType": "uint256",
          "name": "",
          "type": "uint256"
        }
      ],
      "name": "assetFeeOverride",
      "outputs": [
        {
          "internalType": "uint64",
          "name": "fee",
          "type": "uint64"
        },
        {
          "internalType": "bool",
          "name": "enabled",
          "type": "bool"
        }
      ],
      "stateMutability": "view",
      "type": "function"
    },
    {
      "inputs": [
        {
          "internalType": "address",
          "name": "",
          "type": "address"
        }
      ],
      "name": "baseFee",
      "outputs": [
        {
          "internalType": "uint64",
          "name": "",
          "type": "uint64"
        }
      ],
      "stateMutability": "view",
      "type": "function"
    },
    {
      "inputs": [
        {
          "internalType": "address",
          "name": "",
          "type": "address"
        }
      ],
      "name": "collectionFeeOverride",
      "outputs": [
        {
          "internalType": "uint64",
          "name": "fee",
          "type": "uint64"
        },
        {
          "internalType": "bool",
          "name": "enabled",
          "type": "bool"
        }
      ],
      "stateMutability": "view",
      "type": "function"
    },
    {
      "inputs": [],
      "name": "feeTo",
      "outputs": [
        {
          "internalType": "address",
          "name": "",
          "type": "address"
        }
      ],
      "stateMutability": "view",
      "type": "function"
    },
    {
      "inputs": [
        {
          "internalType": "address",
          "name": "_paymentTokenAddress",
          "type": "address"
        },
        {
          "internalType": "address",
          "name": "_assetAddress",
          "type": "address"
        },
        {
          "internalType": "uint256",
          "name": "_assetId",
          "type": "uint256"
        },
        {
          "internalType": "uint256",
          "name": "totalAmount",
          "type": "uint256"
        }
      ],
      "name": "getFee",
      "outputs": [
        {
          "internalType": "address",
          "name": "",
          "type": "address"
        },
        {
          "internalType": "uint256",
          "name": "",
          "type": "uint256"
        }
      ],
      "stateMutability": "view",
      "type": "function"
    },
    {
      "inputs": [],
      "name": "owner",
      "outputs": [
        {
          "internalType": "address",
          "name": "",
          "type": "address"
        }
      ],
      "stateMutability": "view",
      "type": "function"
    },
    {
      "inputs": [],
      "name": "renounceOwnership",
      "outputs": [],
      "stateMutability": "nonpayable",
      "type": "function"
    },
    {
      "inputs": [
        {
          "internalType": "address",
          "name": "_tokenAddress",
          "type": "address"
        },
        {
          "internalType": "uint256",
          "name": "assetId",
          "type": "uint256"
        },
        {
          "components": [
            {
              "internalType": "uint64",
              "name": "fee",
              "type": "uint64"
            },
            {
              "internalType": "bool",
              "name": "enabled",
              "type": "bool"
            }
          ],
          "internalType": "struct FeeManager.FeeOverride",
          "name": "afo",
          "type": "tuple"
        }
      ],
      "name": "setAssetFeeOverride",
      "outputs": [],
      "stateMutability": "nonpayable",
      "type": "function"
    },
    {
      "inputs": [
        {
          "internalType": "address",
          "name": "_paymentTokenAddress",
          "type": "address"
        },
        {
          "internalType": "uint64",
          "name": "_fee",
          "type": "uint64"
        }
      ],
      "name": "setBaseFee",
      "outputs": [],
      "stateMutability": "nonpayable",
      "type": "function"
    },
    {
      "inputs": [
        {
          "internalType": "address",
          "name": "_tokenAddress",
          "type": "address"
        },
        {
          "components": [
            {
              "internalType": "uint64",
              "name": "fee",
              "type": "uint64"
            },
            {
              "internalType": "bool",
              "name": "enabled",
              "type": "bool"
            }
          ],
          "internalType": "struct FeeManager.FeeOverride",
          "name": "cfo",
          "type": "tuple"
        }
      ],
      "name": "setCollectionFeeOverride",
      "outputs": [],
      "stateMutability": "nonpayable",
      "type": "function"
    },
    {
      "inputs": [
        {
          "internalType": "address",
          "name": "_feeTo",
          "type": "address"
        }
      ],
      "name": "setFeeTo",
      "outputs": [],
      "stateMutability": "nonpayable",
      "type": "function"
    },
    {
      "inputs": [
        {
          "internalType": "address",
          "name": "newOwner",
          "type": "address"
        }
      ],
      "name": "transferOwnership",
      "outputs": [],
      "stateMutability": "nonpayable",
      "type": "function"
    }
  ],
  "bytecode": "0x608060405234801561001057600080fd5b5060405162000eb038038062000eb0833981016040819052610031916101a1565b61003a33610065565b600180546001600160a01b0319166001600160a01b03831617905561005e826100b5565b50506101d4565b600080546001600160a01b038381166001600160a01b0319831681178455604051919092169283917f8be0079c531659141344cd1fd0a4f28419497f9722a3daafe3b4186f6b6457e09190a35050565b6000546001600160a01b031633146101145760405162461bcd60e51b815260206004820181905260248201527f4f776e61626c653a2063616c6c6572206973206e6f7420746865206f776e657260448201526064015b60405180910390fd5b6001600160a01b0381166101795760405162461bcd60e51b815260206004820152602660248201527f4f776e61626c653a206e6577206f776e657220697320746865207a65726f206160448201526564647265737360d01b606482015260840161010b565b61018281610065565b50565b80516001600160a01b038116811461019c57600080fd5b919050565b600080604083850312156101b457600080fd5b6101bd83610185565b91506101cb60208401610185565b90509250929050565b610ccc80620001e46000396000f3fe608060405234801561001057600080fd5b50600436106100d45760003560e01c80638da5cb5b11610081578063d8546c0d1161005b578063d8546c0d14610238578063f2fde38b14610273578063f46901ed1461028657600080fd5b80638da5cb5b146101e25780639eb65c7f146101f3578063b5a9b3b51461022557600080fd5b8063493b14cd116100b2578063493b14cd1461016157806360b666d0146101c7578063715018a6146101da57600080fd5b8063017e7e58146100d9578063123b9a0b146101095780633dce0f381461014c575b600080fd5b6001546100ec906001600160a01b031681565b6040516001600160a01b0390911681526020015b60405180910390f35b610133610117366004610b1e565b60026020526000908152604090205467ffffffffffffffff1681565b60405167ffffffffffffffff9091168152602001610100565b61015f61015a366004610b82565b610299565b005b6101a761016f366004610bb6565b600460209081526000928352604080842090915290825290205467ffffffffffffffff81169068010000000000000000900460ff1682565b6040805167ffffffffffffffff9093168352901515602083015201610100565b61015f6101d5366004610be0565b6103e1565b61015f610531565b6000546001600160a01b03166100ec565b610206610201366004610b40565b610597565b604080516001600160a01b039093168352602083019190915201610100565b61015f610233366004610c1d565b61070b565b6101a7610246366004610b1e565b60036020526000908152604090205467ffffffffffffffff81169068010000000000000000900460ff1682565b61015f610281366004610b1e565b610826565b61015f610294366004610b1e565b610908565b6000546001600160a01b031633146102f85760405162461bcd60e51b815260206004820181905260248201527f4f776e61626c653a2063616c6c6572206973206e6f7420746865206f776e657260448201526064015b60405180910390fd5b6001600160a01b03821661034e5760405162461bcd60e51b815260206004820152601e60248201527f4665654d3a3a736574434665654f766572726964653a20696e76616c6964000060448201526064016102ef565b6001600160a01b038216600081815260036020908152604091829020845181548684015167ffffffffffffffff90921668ffffffffffffffffff1990911681176801000000000000000092151592830217909255835194855291840152908201527f0e343fd45f8a48ac7e991fa42a75f2e2650f0430715f4cfe88847c6ec6e37252906060015b60405180910390a15050565b6000546001600160a01b0316331461043b5760405162461bcd60e51b815260206004820181905260248201527f4f776e61626c653a2063616c6c6572206973206e6f7420746865206f776e657260448201526064016102ef565b6001600160a01b0383166104915760405162461bcd60e51b815260206004820152601e60248201527f4665654d3a3a736574414665654f766572726964653a20696e76616c6964000060448201526064016102ef565b6001600160a01b0383166000818152600460209081526040808320868452825291829020845181548684015167ffffffffffffffff90921668ffffffffffffffffff19909116811768010000000000000000921515928302179092558351948552918401869052838301526060830152517f77f6f0899188494691dacb340678abdd796c01ec7458a50e8e5e6948cdcc42af9181900360800190a1505050565b6000546001600160a01b0316331461058b5760405162461bcd60e51b815260206004820181905260248201527f4f776e61626c653a2063616c6c6572206973206e6f7420746865206f776e657260448201526064016102ef565b6105956000610a19565b565b6001600160a01b0383166000908152600460209081526040808320858452825280832081518083019092525467ffffffffffffffff8116825268010000000000000000900460ff1615801592820192909252829161062c5760015481516001600160a01b0390911690612710906106189067ffffffffffffffff1687610c69565b6106229190610c47565b9250925050610702565b6001600160a01b03861660009081526003602090815260409182902082518084019093525467ffffffffffffffff8116835268010000000000000000900460ff16158015918301919091526106b95760015481516001600160a01b0390911690612710906106a49067ffffffffffffffff1688610c69565b6106ae9190610c47565b935093505050610702565b6001546001600160a01b03898116600090815260026020526040902054911690612710906106f19067ffffffffffffffff1688610c69565b6106fb9190610c47565b9350935050505b94509492505050565b6000546001600160a01b031633146107655760405162461bcd60e51b815260206004820181905260248201527f4f776e61626c653a2063616c6c6572206973206e6f7420746865206f776e657260448201526064016102ef565b6001600160a01b0382166107bb5760405162461bcd60e51b815260206004820152601660248201527f4665654d3a3a736574424665653a20696e76616c69640000000000000000000060448201526064016102ef565b6001600160a01b038216600081815260026020908152604091829020805467ffffffffffffffff191667ffffffffffffffff86169081179091558251938452908301527f6724b025217f5d004e8dbc28e36bb0583522252f3a5f9cb8bd957050318fe27791016103d5565b6000546001600160a01b031633146108805760405162461bcd60e51b815260206004820181905260248201527f4f776e61626c653a2063616c6c6572206973206e6f7420746865206f776e657260448201526064016102ef565b6001600160a01b0381166108fc5760405162461bcd60e51b815260206004820152602660248201527f4f776e61626c653a206e6577206f776e657220697320746865207a65726f206160448201527f646472657373000000000000000000000000000000000000000000000000000060648201526084016102ef565b61090581610a19565b50565b6000546001600160a01b031633146109625760405162461bcd60e51b815260206004820181905260248201527f4f776e61626c653a2063616c6c6572206973206e6f7420746865206f776e657260448201526064016102ef565b6001600160a01b0381166109b85760405162461bcd60e51b815260206004820152601760248201527f4665654d3a3a736574466565546f3a20696e76616c696400000000000000000060448201526064016102ef565b6001805473ffffffffffffffffffffffffffffffffffffffff19166001600160a01b0383169081179091556040519081527fe7ba424f407983edfb652af33e51f926d1d41a22bb4850c65eb21c02e378957c9060200160405180910390a150565b600080546001600160a01b0383811673ffffffffffffffffffffffffffffffffffffffff19831681178455604051919092169283917f8be0079c531659141344cd1fd0a4f28419497f9722a3daafe3b4186f6b6457e09190a35050565b80356001600160a01b0381168114610a8d57600080fd5b919050565b600060408284031215610aa457600080fd5b6040516040810181811067ffffffffffffffff82111715610ad557634e487b7160e01b600052604160045260246000fd5b604052905080610ae483610b06565b815260208301358015158114610af957600080fd5b6020919091015292915050565b803567ffffffffffffffff81168114610a8d57600080fd5b600060208284031215610b3057600080fd5b610b3982610a76565b9392505050565b60008060008060808587031215610b5657600080fd5b610b5f85610a76565b9350610b6d60208601610a76565b93969395505050506040820135916060013590565b60008060608385031215610b9557600080fd5b610b9e83610a76565b9150610bad8460208501610a92565b90509250929050565b60008060408385031215610bc957600080fd5b610bd283610a76565b946020939093013593505050565b600080600060808486031215610bf557600080fd5b610bfe84610a76565b925060208401359150610c148560408601610a92565b90509250925092565b60008060408385031215610c3057600080fd5b610c3983610a76565b9150610bad60208401610b06565b600082610c6457634e487b7160e01b600052601260045260246000fd5b500490565b6000816000190483118215151615610c9157634e487b7160e01b600052601160045260246000fd5b50029056fea2646970667358221220fff3910d84aeaf5f8f122d80603011e1e3a93980f8db1473c9c8edf82fbff6ec64736f6c63430008070033",
  "linkReferences": {},
  "deployedLinkReferences": {}
}