{
  "_format": "hh-sol-artifact-1",
  "contractName": "MarketplaceV1",
  "sourceName": "contracts/MarketplaceV1.sol",
  "abi": [
    {
      "inputs": [
        {
          "internalType": "address",
          "name": "_governor",
          "type": "address"
        },
        {
          "internalType": "address",
          "name": "_warehouse",
          "type": "address"
        },
        {
          "internalType": "address",
          "name": "_strategyRegistry",
          "type": "address"
        },
        {
          "internalType": "address",
          "name": "_feeManager",
          "type": "address"
        },
        {
          "internalType": "address",
          "name": "_blacklistManager",
          "type": "address"
        },
        {
          "internalType": "address",
          "name": "_swapListener",
          "type": "address"
        }
      ],
      "stateMutability": "nonpayable",
      "type": "constructor"
    },
    {
      "anonymous": false,
      "inputs": [
        {
          "indexed": false,
          "internalType": "address",
          "name": "blacklistManager",
          "type": "address"
        }
      ],
      "name": "BlacklistManagerSet",
      "type": "event"
    },
    {
      "anonymous": false,
      "inputs": [
        {
          "indexed": true,
          "internalType": "bytes32",
          "name": "orderHash",
          "type": "bytes32"
        },
        {
          "indexed": false,
          "internalType": "uint256",
          "name": "sellerGetsBackAmount",
          "type": "uint256"
        }
      ],
      "name": "Cancel",
      "type": "event"
    },
    {
      "anonymous": false,
      "inputs": [
        {
          "indexed": false,
          "internalType": "address",
          "name": "feeManager",
          "type": "address"
        }
      ],
      "name": "FeeManagerSet",
      "type": "event"
    },
    {
      "anonymous": false,
      "inputs": [
        {
          "indexed": true,
          "internalType": "bytes32",
          "name": "orderHash",
          "type": "bytes32"
        },
        {
          "indexed": true,
          "internalType": "address",
          "name": "buyer",
          "type": "address"
        },
        {
          "indexed": false,
          "internalType": "uint256",
          "name": "buyerSendsAmountFull",
          "type": "uint256"
        },
        {
          "indexed": false,
          "internalType": "uint256",
          "name": "buyerSentAmount",
          "type": "uint256"
        },
        {
          "indexed": false,
          "internalType": "uint256",
          "name": "sellerSendsAmountFull",
          "type": "uint256"
        },
        {
          "indexed": false,
          "internalType": "uint256",
          "name": "sellerSentAmount",
          "type": "uint256"
        },
        {
          "indexed": false,
          "internalType": "bool",
          "name": "complete",
          "type": "bool"
        }
      ],
      "name": "Fill",
      "type": "event"
    },
    {
      "anonymous": false,
      "inputs": [
        {
          "indexed": true,
          "internalType": "bytes32",
          "name": "orderHash",
          "type": "bytes32"
        },
        {
          "indexed": true,
          "internalType": "address",
          "name": "seller",
          "type": "address"
        },
        {
          "indexed": true,
          "internalType": "address",
          "name": "sellAssetAddress",
          "type": "address"
        },
        {
          "indexed": false,
          "internalType": "uint256",
          "name": "sellAssetId",
          "type": "uint256"
        },
        {
          "indexed": false,
          "internalType": "uint256",
          "name": "sellAssetType",
          "type": "uint256"
        },
        {
          "indexed": false,
          "internalType": "address",
          "name": "buyAssetAddress",
          "type": "address"
        },
        {
          "indexed": false,
          "internalType": "uint256",
          "name": "buyAssetId",
          "type": "uint256"
        },
        {
          "indexed": false,
          "internalType": "uint256",
          "name": "buyAssetType",
          "type": "uint256"
        },
        {
          "indexed": false,
          "internalType": "bytes32",
          "name": "strategy",
          "type": "bytes32"
        },
        {
          "indexed": false,
          "internalType": "uint256",
          "name": "salt",
          "type": "uint256"
        },
        {
          "indexed": false,
          "internalType": "uint256",
          "name": "sellerEscrowsAmount",
          "type": "uint256"
        }
      ],
      "name": "Order",
      "type": "event"
    },
    {
      "anonymous": false,
      "inputs": [
        {
          "indexed": true,
          "internalType": "address",
          "name": "previousOwner",
          "type": "address"
        },
        {
          "indexed": true,
          "internalType": "address",
          "name": "newOwner",
          "type": "address"
        }
      ],
      "name": "OwnershipTransferred",
      "type": "event"
    },
    {
      "anonymous": false,
      "inputs": [
        {
          "indexed": false,
          "internalType": "address",
          "name": "token",
          "type": "address"
        },
        {
          "indexed": false,
          "internalType": "enum DomainV1.AssetType",
          "name": "",
          "type": "uint8"
        },
        {
          "indexed": false,
          "internalType": "bool",
          "name": "enabled",
          "type": "bool"
        }
      ],
      "name": "PaymentTokenSet",
      "type": "event"
    },
    {
      "anonymous": false,
      "inputs": [
        {
          "indexed": false,
          "internalType": "address",
          "name": "registry",
          "type": "address"
        }
      ],
      "name": "StrategyRegistrySet",
      "type": "event"
    },
    {
      "anonymous": false,
      "inputs": [
        {
          "indexed": false,
          "internalType": "address",
          "name": "listener",
          "type": "address"
        }
      ],
      "name": "SwapListenerSet",
      "type": "event"
    },
    {
      "anonymous": false,
      "inputs": [
        {
          "indexed": false,
          "internalType": "address",
          "name": "warehouse",
          "type": "address"
        }
      ],
      "name": "WarehouseSet",
      "type": "event"
    },
    {
      "inputs": [
        {
          "internalType": "address",
          "name": "",
          "type": "address"
        }
      ],
      "name": "allowedPaymentToken",
      "outputs": [
        {
          "internalType": "bool",
          "name": "enabled",
          "type": "bool"
        },
        {
          "internalType": "enum DomainV1.AssetType",
          "name": "assetType",
          "type": "uint8"
        }
      ],
      "stateMutability": "view",
      "type": "function"
    },
    {
      "inputs": [],
      "name": "blacklistManager",
      "outputs": [
        {
          "internalType": "contract IBlacklistManager",
          "name": "",
          "type": "address"
        }
      ],
      "stateMutability": "view",
      "type": "function"
    },
    {
      "inputs": [
        {
          "components": [
            {
              "internalType": "bytes32",
              "name": "strategy",
              "type": "bytes32"
            },
            {
              "internalType": "uint256",
              "name": "salt",
              "type": "uint256"
            },
            {
              "internalType": "address",
              "name": "seller",
              "type": "address"
            },
            {
              "components": [
                {
                  "internalType": "address",
                  "name": "addr",
                  "type": "address"
                },
                {
                  "internalType": "uint256",
                  "name": "id",
                  "type": "uint256"
                },
                {
                  "internalType": "enum DomainV1.AssetType",
                  "name": "assetType",
                  "type": "uint8"
                }
              ],
              "internalType": "struct DomainV1.Asset",
              "name": "sellAsset",
              "type": "tuple"
            },
            {
              "components": [
                {
                  "internalType": "address",
                  "name": "addr",
                  "type": "address"
                },
                {
                  "internalType": "uint256",
                  "name": "id",
                  "type": "uint256"
                },
                {
                  "internalType": "enum DomainV1.AssetType",
                  "name": "assetType",
                  "type": "uint8"
                }
              ],
              "internalType": "struct DomainV1.Asset",
              "name": "buyAsset",
              "type": "tuple"
            }
          ],
          "internalType": "struct DomainV1.Order",
          "name": "_order",
          "type": "tuple"
        }
      ],
      "name": "calculateOrderHash",
      "outputs": [
        {
          "internalType": "bytes32",
          "name": "",
          "type": "bytes32"
        }
      ],
      "stateMutability": "pure",
      "type": "function"
    },
    {
      "inputs": [
        {
          "internalType": "bytes32",
          "name": "_orderHash",
          "type": "bytes32"
        },
        {
          "internalType": "bytes",
          "name": "cancelData",
          "type": "bytes"
        }
      ],
      "name": "cancelOrder",
      "outputs": [],
      "stateMutability": "nonpayable",
      "type": "function"
    },
    {
      "inputs": [
        {
          "internalType": "bytes",
          "name": "cancelOrderData",
          "type": "bytes"
        },
        {
          "internalType": "bytes",
          "name": "signature",
          "type": "bytes"
        }
      ],
      "name": "cancelOrderSig",
      "outputs": [],
      "stateMutability": "nonpayable",
      "type": "function"
    },
    {
      "inputs": [
        {
          "components": [
            {
              "internalType": "bytes32",
              "name": "strategy",
              "type": "bytes32"
            },
            {
              "internalType": "uint256",
              "name": "salt",
              "type": "uint256"
            },
            {
              "internalType": "address",
              "name": "seller",
              "type": "address"
            },
            {
              "components": [
                {
                  "internalType": "address",
                  "name": "addr",
                  "type": "address"
                },
                {
                  "internalType": "uint256",
                  "name": "id",
                  "type": "uint256"
                },
                {
                  "internalType": "enum DomainV1.AssetType",
                  "name": "assetType",
                  "type": "uint8"
                }
              ],
              "internalType": "struct DomainV1.Asset",
              "name": "sellAsset",
              "type": "tuple"
            },
            {
              "components": [
                {
                  "internalType": "address",
                  "name": "addr",
                  "type": "address"
                },
                {
                  "internalType": "uint256",
                  "name": "id",
                  "type": "uint256"
                },
                {
                  "internalType": "enum DomainV1.AssetType",
                  "name": "assetType",
                  "type": "uint8"
                }
              ],
              "internalType": "struct DomainV1.Asset",
              "name": "buyAsset",
              "type": "tuple"
            }
          ],
          "internalType": "struct DomainV1.Order",
          "name": "_order",
          "type": "tuple"
        },
        {
          "internalType": "bytes",
          "name": "createData",
          "type": "bytes"
        }
      ],
      "name": "createOrder",
      "outputs": [
        {
          "internalType": "bytes32",
          "name": "orderHash",
          "type": "bytes32"
        }
      ],
      "stateMutability": "nonpayable",
      "type": "function"
    },
    {
      "inputs": [
        {
          "internalType": "bytes",
          "name": "createOrderData",
          "type": "bytes"
        },
        {
          "internalType": "bytes",
          "name": "signature",
          "type": "bytes"
        }
      ],
      "name": "createOrderSig",
      "outputs": [
        {
          "internalType": "bytes32",
          "name": "orderHash",
          "type": "bytes32"
        }
      ],
      "stateMutability": "nonpayable",
      "type": "function"
    },
    {
      "inputs": [],
      "name": "feeManager",
      "outputs": [
        {
          "internalType": "contract IFeeManager",
          "name": "",
          "type": "address"
        }
      ],
      "stateMutability": "view",
      "type": "function"
    },
    {
      "inputs": [
        {
          "internalType": "bytes32",
          "name": "_orderHash",
          "type": "bytes32"
        },
        {
          "internalType": "bytes",
          "name": "fillData",
          "type": "bytes"
        }
      ],
      "name": "fillOrder",
      "outputs": [],
      "stateMutability": "nonpayable",
      "type": "function"
    },
    {
      "inputs": [
        {
          "internalType": "bytes",
          "name": "fillOrderData",
          "type": "bytes"
        },
        {
          "internalType": "bytes",
          "name": "signature",
          "type": "bytes"
        }
      ],
      "name": "fillOrderSig",
      "outputs": [],
      "stateMutability": "nonpayable",
      "type": "function"
    },
    {
      "inputs": [
        {
          "internalType": "address",
          "name": "",
          "type": "address"
        },
        {
          "internalType": "address",
          "name": "",
          "type": "address"
        },
        {
          "internalType": "uint256[]",
          "name": "",
          "type": "uint256[]"
        },
        {
          "internalType": "uint256[]",
          "name": "",
          "type": "uint256[]"
        },
        {
          "internalType": "bytes",
          "name": "",
          "type": "bytes"
        }
      ],
      "name": "onERC1155BatchReceived",
      "outputs": [
        {
          "internalType": "bytes4",
          "name": "",
          "type": "bytes4"
        }
      ],
      "stateMutability": "nonpayable",
      "type": "function"
    },
    {
      "inputs": [
        {
          "internalType": "address",
          "name": "",
          "type": "address"
        },
        {
          "internalType": "address",
          "name": "",
          "type": "address"
        },
        {
          "internalType": "uint256",
          "name": "",
          "type": "uint256"
        },
        {
          "internalType": "uint256",
          "name": "",
          "type": "uint256"
        },
        {
          "internalType": "bytes",
          "name": "",
          "type": "bytes"
        }
      ],
      "name": "onERC1155Received",
      "outputs": [
        {
          "internalType": "bytes4",
          "name": "",
          "type": "bytes4"
        }
      ],
      "stateMutability": "nonpayable",
      "type": "function"
    },
    {
      "inputs": [
        {
          "internalType": "bytes32",
          "name": "_orderHash",
          "type": "bytes32"
        }
      ],
      "name": "orderExists",
      "outputs": [
        {
          "internalType": "bool",
          "name": "",
          "type": "bool"
        }
      ],
      "stateMutability": "view",
      "type": "function"
    },
    {
      "inputs": [],
      "name": "owner",
      "outputs": [
        {
          "internalType": "address",
          "name": "",
          "type": "address"
        }
      ],
      "stateMutability": "view",
      "type": "function"
    },
    {
      "inputs": [],
      "name": "renounceOwnership",
      "outputs": [],
      "stateMutability": "nonpayable",
      "type": "function"
    },
    {
      "inputs": [
        {
          "internalType": "address",
          "name": "_blacklistManager",
          "type": "address"
        }
      ],
      "name": "setBlacklistManager",
      "outputs": [],
      "stateMutability": "nonpayable",
      "type": "function"
    },
    {
      "inputs": [
        {
          "internalType": "address",
          "name": "_feeManager",
          "type": "address"
        }
      ],
      "name": "setFeeManager",
      "outputs": [],
      "stateMutability": "nonpayable",
      "type": "function"
    },
    {
      "inputs": [
        {
          "internalType": "address",
          "name": "_paymentTokenAddress",
          "type": "address"
        },
        {
          "internalType": "enum DomainV1.AssetType",
          "name": "_type",
          "type": "uint8"
        },
        {
          "internalType": "bool",
          "name": "enable",
          "type": "bool"
        }
      ],
      "name": "setPaymentToken",
      "outputs": [],
      "stateMutability": "nonpayable",
      "type": "function"
    },
    {
      "inputs": [
        {
          "internalType": "address",
          "name": "_newStrategyRegistry",
          "type": "address"
        }
      ],
      "name": "setStrategyRegistry",
      "outputs": [],
      "stateMutability": "nonpayable",
      "type": "function"
    },
    {
      "inputs": [
        {
          "internalType": "address",
          "name": "_swapListener",
          "type": "address"
        }
      ],
      "name": "setSwapListener",
      "outputs": [],
      "stateMutability": "nonpayable",
      "type": "function"
    },
    {
      "inputs": [
        {
          "internalType": "address",
          "name": "_newWarehouse",
          "type": "address"
        }
      ],
      "name": "setWarehouse",
      "outputs": [],
      "stateMutability": "nonpayable",
      "type": "function"
    },
    {
      "inputs": [],
      "name": "strategyRegistry",
      "outputs": [
        {
          "internalType": "contract StrategyRegistry",
          "name": "",
          "type": "address"
        }
      ],
      "stateMutability": "view",
      "type": "function"
    },
    {
      "inputs": [
        {
          "internalType": "bytes4",
          "name": "interfaceId",
          "type": "bytes4"
        }
      ],
      "name": "supportsInterface",
      "outputs": [
        {
          "internalType": "bool",
          "name": "",
          "type": "bool"
        }
      ],
      "stateMutability": "view",
      "type": "function"
    },
    {
      "inputs": [],
      "name": "swapListener",
      "outputs": [
        {
          "internalType": "contract ISwapListener",
          "name": "",
          "type": "address"
        }
      ],
      "stateMutability": "view",
      "type": "function"
    },
    {
      "inputs": [
        {
          "internalType": "address",
          "name": "newOwner",
          "type": "address"
        }
      ],
      "name": "transferOwnership",
      "outputs": [],
      "stateMutability": "nonpayable",
      "type": "function"
    },
    {
      "inputs": [],
      "name": "warehouse",
      "outputs": [
        {
          "internalType": "contract Warehouse",
          "name": "",
          "type": "address"
        }
      ],
      "stateMutability": "view",
      "type": "function"
    }
  ],
  "bytecode": "0x60806040523480156200001157600080fd5b506040516200489538038062004895833981016040819052620000349162000310565b6200003f33620001ce565b600280546001600160a01b03199081166001600160a01b03888116918217909355600180548316888516179055600380548316858516179055600480548316878516179055600580549092169285169290921790556040519081527f6e4bc0c5b03329134d6cd2b8bd05d066f3d18885e85d302af10d11c0b7a7a8d59060200160405180910390a16040516001600160a01b03851681527fc8f6f976c20221cfca1498913573ed2bc921d8f3c6e4b7d1fcf4d228628bbd109060200160405180910390a16040516001600160a01b03841681527fbf5f580614969fb819b8af01f7cc62fe0e0146feaf98d7aee42e76bb0bee8e639060200160405180910390a16040516001600160a01b03831681527f0c50897633667acdce5d3e9eb08db0920eecff14f248277c32f63a59f58c9df09060200160405180910390a16040516001600160a01b03821681527f24c2328d6ab44b1cfb0c32248791fda1075409b7c64141cc432de4c24e7b0a5e9060200160405180910390a1620001c2866200021e565b50505050505062000391565b600080546001600160a01b038381166001600160a01b0319831681178455604051919092169283917f8be0079c531659141344cd1fd0a4f28419497f9722a3daafe3b4186f6b6457e09190a35050565b6000546001600160a01b031633146200027e5760405162461bcd60e51b815260206004820181905260248201527f4f776e61626c653a2063616c6c6572206973206e6f7420746865206f776e657260448201526064015b60405180910390fd5b6001600160a01b038116620002e55760405162461bcd60e51b815260206004820152602660248201527f4f776e61626c653a206e6577206f776e657220697320746865207a65726f206160448201526564647265737360d01b606482015260840162000275565b620002f081620001ce565b50565b80516001600160a01b03811681146200030b57600080fd5b919050565b60008060008060008060c087890312156200032a57600080fd5b6200033587620002f3565b95506200034560208801620002f3565b94506200035560408801620002f3565b93506200036560608801620002f3565b92506200037560808801620002f3565b91506200038560a08801620002f3565b90509295509295509295565b6144f480620003a16000396000f3fe608060405234801561001057600080fd5b50600436106101ae5760003560e01c80638da5cb5b116100ee578063d080bf2711610097578063f23a6e6111610071578063f23a6e61146103e6578063f2fde38b1461041e578063f4764dca14610431578063ff3b46e31461044457600080fd5b8063d080bf27146103ad578063d0fb0203146103c0578063d9dbf657146103d357600080fd5b8063a56c62cf116100c8578063a56c62cf14610336578063bc197c8114610349578063c6d4574e1461039a57600080fd5b80638da5cb5b146102eb5780639b62276914610310578063a4302fcb1461032357600080fd5b806333a1e0da1161015b5780636e970293116101355780636e97029314610283578063715018a6146102965780637713fb181461029e5780638a095a57146102b157600080fd5b806333a1e0da1461024a578063472d35b91461025d578063579d07cf1461027057600080fd5b80632479e2571161018c5780632479e257146102115780632cb77e9f146102245780632ef515961461023757600080fd5b806301ffc9a7146101b357806309b0b210146101db57806324480616146101f0575b600080fd5b6101c66101c1366004613eec565b610457565b60405190151581526020015b60405180910390f35b6101ee6101e9366004613b67565b6104c0565b005b6102036101fe366004613f16565b610574565b6040519081526020016101d2565b6101ee61021f366004613b67565b610f3f565b6101c6610232366004613d4e565b61103d565b6101ee610245366004613b67565b6110e5565b610203610258366004613f9f565b6111e3565b6101ee61026b366004613b67565b611ba7565b61020361027e366004613fe3565b611c4f565b6101ee610291366004613d67565b611ce1565b6101ee6120ea565b6101ee6102ac366004613d67565b612150565b6102dd6102bf366004613b67565b60066020526000908152604090205460ff8082169161010090041682565b6040516101d29291906141e7565b6000546001600160a01b03165b6040516001600160a01b0390911681526020016101d2565b6002546102f8906001600160a01b031681565b6101ee610331366004613f16565b61249b565b6101ee610344366004613b67565b612909565b610381610357366004613ba1565b7fbc197c810000000000000000000000000000000000000000000000000000000095945050505050565b6040516001600160e01b031990911681526020016101d2565b6101ee6103a8366004613cb8565b6129b1565b6001546102f8906001600160a01b031681565b6004546102f8906001600160a01b031681565b6005546102f8906001600160a01b031681565b6103816103f4366004613c4f565b7ff23a6e610000000000000000000000000000000000000000000000000000000095945050505050565b6101ee61042c366004613b67565b612af2565b6101ee61043f366004613f16565b612bd4565b6003546102f8906001600160a01b031681565b60006001600160e01b031982167f4e2312e00000000000000000000000000000000000000000000000000000000014806104ba57507f01ffc9a7000000000000000000000000000000000000000000000000000000006001600160e01b03198316145b92915050565b6000546001600160a01b0316331461051f5760405162461bcd60e51b815260206004820181905260248201527f4f776e61626c653a2063616c6c6572206973206e6f7420746865206f776e657260448201526064015b60405180910390fd5b600380546001600160a01b0319166001600160a01b0383169081179091556040519081527f24c2328d6ab44b1cfb0c32248791fda1075409b7c64141cc432de4c24e7b0a5e906020015b60405180910390a150565b60008060006105b887878080601f016020809104026020016040519081016040528093929190818152602001838380828437600092019190915250612f5092505050565b9150915081604001516001600160a01b03166106296105ed89896040516105e09291906141aa565b604051809103902061305b565b87878080601f01602080910402602001604051908101604052809392919081815260200183838082843760009201919091525061309692505050565b6001600160a01b03161461067f5760405162461bcd60e51b815260206004820152601e60248201527f4d56313a3a6372656174654f726465723a20756e617574686f72697a656400006044820152606401610516565b6005546001600160a01b031615610808576005546060830151805160209091015160405163e757148360e01b81526001600160a01b039283166004820152602481019190915291169063e75714839060440160206040518083038186803b1580156106e957600080fd5b505afa1580156106fd573d6000803e3d6000fd5b505050506040513d601f19601f820116820180604052508101906107219190613d31565b1580156107bc57506005546080830151805160209091015160405163e757148360e01b81526001600160a01b039283166004820152602481019190915291169063e75714839060440160206040518083038186803b15801561078257600080fd5b505afa158015610796573d6000803e3d6000fd5b505050506040513d601f19601f820116820180604052508101906107ba9190613d31565b155b6108085760405162461bcd60e51b815260206004820152601d60248201527f4d56313a3a6372656174654f726465723a20626c61636b6c69737465640000006044820152606401610516565b61081182611c4f565b600254604051631b9458a360e01b8152600481018390529194506001600160a01b031690631b9458a39060240160206040518083038186803b15801561085657600080fd5b505afa15801561086a573d6000803e3d6000fd5b505050506040513d601f19601f8201168201806040525081019061088e9190613d31565b1580156108a1575061089f8361103d565b155b6108ed5760405162461bcd60e51b815260206004820152601960248201527f4d56313a3a6372656174654f726465723a20616c7265616479000000000000006044820152606401610516565b6000826060015160400151600381111561090957610909614462565b14156109575760405162461bcd60e51b815260206004820152601c60248201527f4d56313a3a6372656174654f726465723a20736120756e6b6e6f776e000000006044820152606401610516565b6000826080015160400151600381111561097357610973614462565b14156109c15760405162461bcd60e51b815260206004820152601c60248201527f4d56313a3a6372656174654f726465723a20626120756e6b6e6f776e000000006044820152606401610516565b600182608001516040015160038111156109dd576109dd614462565b1415610a395760808201516020015115610a395760405162461bcd60e51b815260206004820152601d60248201527f4d56313a3a6372656174654f726465723a206261206964206e6f7420300000006044820152606401610516565b60018260600151604001516003811115610a5557610a55614462565b1415610ab15760608201516020015115610ab15760405162461bcd60e51b815260206004820152601d60248201527f4d56313a3a6372656174654f726465723a206261206964206e6f7420300000006044820152606401610516565b6060820151516001600160a01b031660009081526006602090815260408083208151808301909252805460ff808216151584529293919291840191610100909104166003811115610b0457610b04614462565b6003811115610b1557610b15614462565b9052506080840151516001600160a01b031660009081526006602090815260408083208151808301909252805460ff80821615158452959650939491939092840191610100909104166003811115610b6f57610b6f614462565b6003811115610b8057610b80614462565b90525082519091508015610bc157508360600151604001516003811115610ba957610ba9614462565b82602001516003811115610bbf57610bbf614462565b145b80610c02575080518015610c0257508360800151604001516003811115610bea57610bea614462565b81602001516003811115610c0057610c00614462565b145b610c4e5760405162461bcd60e51b815260206004820152601e60248201527f4d56313a3a6372656174654f726465723a2070746f6b656e206572726f7200006044820152606401610516565b6002546040516319d660ed60e11b81526001600160a01b03909116906333acc1da90610c8090889088906004016142c8565b600060405180830381600087803b158015610c9a57600080fd5b505af1158015610cae573d6000803e3d6000fd5b505060015486516040516318459c8560e01b81526004810191909152600093506001600160a01b0390911691506318459c859060240160206040518083038186803b158015610cfc57600080fd5b505afa158015610d10573d6000803e3d6000fd5b505050506040513d601f19601f82011682018060405250810190610d349190613b84565b90506000816001600160a01b0316635b37e15088876040518363ffffffff1660e01b8152600401610d66929190614233565b602060405180830381600087803b158015610d8057600080fd5b505af1158015610d94573d6000803e3d6000fd5b505050506040513d601f19601f82011682018060405250810190610db891906140a5565b905060028660600151604001516003811115610dd657610dd6614462565b1415610e2c5780600114610e2c5760405162461bcd60e51b815260206004820152601c60248201527f4d56313a3a6372656174654f726465723a20656120696e76616c6964000000006044820152606401610516565b60025460608701516040808901519051635d61f5af60e01b81526001600160a01b0390931692635d61f5af92610e6a9290918590879060040161435a565b600060405180830381600087803b158015610e8457600080fd5b505af1158015610e98573d6000803e3d6000fd5b505060025460408981015190517f153283450000000000000000000000000000000000000000000000000000000081526001600160a01b039182166004820152602481018c9052604481018690529116925063153283459150606401600060405180830381600087803b158015610f0e57600080fd5b505af1158015610f22573d6000803e3d6000fd5b50505050610f3187878361313a565b505050505050949350505050565b6000546001600160a01b03163314610f995760405162461bcd60e51b815260206004820181905260248201527f4f776e61626c653a2063616c6c6572206973206e6f7420746865206f776e65726044820152606401610516565b6001600160a01b038116610fef5760405162461bcd60e51b815260206004820152601760248201527f4d56313a3a73657457686f7573653a20696e76616c69640000000000000000006044820152606401610516565b600280546001600160a01b0319166001600160a01b0383169081179091556040519081527f6e4bc0c5b03329134d6cd2b8bd05d066f3d18885e85d302af10d11c0b7a7a8d590602001610569565b600254604051632bbc239560e11b81526004810183905260009182916001600160a01b0390911690635778472a906024016101206040518083038186803b15801561108757600080fd5b505afa15801561109b573d6000803e3d6000fd5b505050506040513d601f19601f820116820180604052508101906110bf919061404a565b8051909150158015906110de575060408101516001600160a01b031615155b9392505050565b6000546001600160a01b0316331461113f5760405162461bcd60e51b815260206004820181905260248201527f4f776e61626c653a2063616c6c6572206973206e6f7420746865206f776e65726044820152606401610516565b6001600160a01b0381166111955760405162461bcd60e51b815260206004820152601360248201527f4d56313a3a73657453523a20696e76616c6964000000000000000000000000006044820152606401610516565b600180546001600160a01b0319166001600160a01b0383169081179091556040519081527fc8f6f976c20221cfca1498913573ed2bc921d8f3c6e4b7d1fcf4d228628bbd1090602001610569565b6000336111f66060860160408701613b67565b6001600160a01b03161461124c5760405162461bcd60e51b815260206004820152601e60248201527f4d56313a3a6372656174654f726465723a20756e617574686f72697a656400006044820152606401610516565b6005546001600160a01b0316156113f7576005546001600160a01b031663e757148361127e6080870160608801613b67565b60405160e083901b6001600160e01b03191681526001600160a01b0390911660048201526080870135602482015260440160206040518083038186803b1580156112c757600080fd5b505afa1580156112db573d6000803e3d6000fd5b505050506040513d601f19601f820116820180604052508101906112ff9190613d31565b1580156113ab57506005546001600160a01b031663e757148361132860e0870160c08801613b67565b60405160e083811b6001600160e01b03191682526001600160a01b0392909216600482015290870135602482015260440160206040518083038186803b15801561137157600080fd5b505afa158015611385573d6000803e3d6000fd5b505050506040513d601f19601f820116820180604052508101906113a99190613d31565b155b6113f75760405162461bcd60e51b815260206004820152601d60248201527f4d56313a3a6372656174654f726465723a20626c61636b6c69737465640000006044820152606401610516565b61140961027e36869003860186613fe3565b600254604051631b9458a360e01b8152600481018390529192506001600160a01b031690631b9458a39060240160206040518083038186803b15801561144e57600080fd5b505afa158015611462573d6000803e3d6000fd5b505050506040513d601f19601f820116820180604052508101906114869190613d31565b15801561149957506114978161103d565b155b6114e55760405162461bcd60e51b815260206004820152601b60248201527f4d56313a3a6372656174654f726465723a20616c7265616479206500000000006044820152606401610516565b60006114f760c0860160a08701613f82565b600381111561150857611508614462565b14156115565760405162461bcd60e51b815260206004820152601c60248201527f4d56313a3a6372656174654f726465723a20736120756e6b6e6f776e000000006044820152606401610516565b600061156a61012086016101008701613f82565b600381111561157b5761157b614462565b14156115c95760405162461bcd60e51b815260206004820152601c60248201527f4d56313a3a6372656174654f726465723a20626120756e6b6e6f776e000000006044820152606401610516565b60016115dd61012086016101008701613f82565b60038111156115ee576115ee614462565b14156116465760e0840135156116465760405162461bcd60e51b815260206004820152601d60248201527f4d56313a3a6372656174654f726465723a206261206964206e6f7420300000006044820152606401610516565b600161165860c0860160a08701613f82565b600381111561166957611669614462565b14156116c1576080840135156116c15760405162461bcd60e51b815260206004820152601d60248201527f4d56313a3a6372656174654f726465723a207361206964206e6f7420300000006044820152606401610516565b60006006816116d66080880160608901613b67565b6001600160a01b0316815260208082019290925260409081016000208151808301909252805460ff80821615158452929391929184019161010090910416600381111561172557611725614462565b600381111561173657611736614462565b9052509050600060068161175060e0890160c08a01613b67565b6001600160a01b0316815260208082019290925260409081016000208151808301909252805460ff80821615158452929391929184019161010090910416600381111561179f5761179f614462565b60038111156117b0576117b0614462565b905250825190915080156117f857506117cf60c0870160a08801613f82565b60038111156117e0576117e0614462565b826020015160038111156117f6576117f6614462565b145b80611842575080518015611842575061181961012087016101008801613f82565b600381111561182a5761182a614462565b8160200151600381111561184057611840614462565b145b61188e5760405162461bcd60e51b815260206004820152601e60248201527f4d56313a3a6372656174654f726465723a2070746f6b656e206572726f7200006044820152606401610516565b6002546040516319d660ed60e11b81526001600160a01b03909116906333acc1da906118c09086908a9060040161426d565b600060405180830381600087803b1580156118da57600080fd5b505af11580156118ee573d6000803e3d6000fd5b50506001546040516318459c8560e01b815289356004820152600093506001600160a01b0390911691506318459c859060240160206040518083038186803b15801561193957600080fd5b505afa15801561194d573d6000803e3d6000fd5b505050506040513d601f19601f820116820180604052508101906119719190613b84565b90506000816001600160a01b0316635b37e1508689896040518463ffffffff1660e01b81526004016119a5939291906141fd565b602060405180830381600087803b1580156119bf57600080fd5b505af11580156119d3573d6000803e3d6000fd5b505050506040513d601f19601f820116820180604052508101906119f791906140a5565b90506002611a0b60c08a0160a08b01613f82565b6003811115611a1c57611a1c614462565b1415611a725780600114611a725760405162461bcd60e51b815260206004820152601c60248201527f4d56313a3a6372656174654f726465723a20656120696e76616c6964000000006044820152606401610516565b6002546001600160a01b0316635d61f5af60608a01611a948160408d01613b67565b6002546040516001600160e01b031960e086901b168152611ac59392916001600160a01b0316908790600401614325565b600060405180830381600087803b158015611adf57600080fd5b505af1158015611af3573d6000803e3d6000fd5b50506002546001600160a01b0316915063153283459050611b1a60608b0160408c01613b67565b6040516001600160e01b031960e084901b1681526001600160a01b0390911660048201526024810188905260448101849052606401600060405180830381600087803b158015611b6957600080fd5b505af1158015611b7d573d6000803e3d6000fd5b50505050611b9c8589803603810190611b969190613fe3565b8361313a565b505050509392505050565b6000546001600160a01b03163314611c015760405162461bcd60e51b815260206004820181905260248201527f4f776e61626c653a2063616c6c6572206973206e6f7420746865206f776e65726044820152606401610516565b600480546001600160a01b0319166001600160a01b0383169081179091556040519081527fbf5f580614969fb819b8af01f7cc62fe0e0146feaf98d7aee42e76bb0bee8e6390602001610569565b6060810151805160209182015160408085015160808601518051908601518688015188519451600098611cc498979691016001600160a01b03978816815260208101969096529386166040860152919094166060840152608083019390935260a082019290925260c081019190915260e00190565b604051602081830303815290604052805190602001209050919050565b611cea8361103d565b611d365760405162461bcd60e51b815260206004820152601360248201527f4d56313a3a66696c6c4f726465723a206e6f74000000000000000000000000006044820152606401610516565b600254604051632bbc239560e11b8152600481018590526000916001600160a01b031690635778472a906024016101206040518083038186803b158015611d7c57600080fd5b505afa158015611d90573d6000803e3d6000fd5b505050506040513d601f19601f82011682018060405250810190611db4919061404a565b60015481516040516318459c8560e01b81529293506000926001600160a01b03909216916318459c8591611dee9160040190815260200190565b60206040518083038186803b158015611e0657600080fd5b505afa158015611e1a573d6000803e3d6000fd5b505050506040513d601f19601f82011682018060405250810190611e3e9190613b84565b90506000806000806000856001600160a01b031663d5b7008b8b8b8b6040518463ffffffff1660e01b8152600401611e78939291906141fd565b60a060405180830381600087803b158015611e9257600080fd5b505af1158015611ea6573d6000803e3d6000fd5b505050506040513d601f19601f82011682018060405250810190611eca91906140be565b94509450945094509450816001600160a01b0316336001600160a01b031614611f355760405162461bcd60e51b815260206004820152601c60248201527f4d56313a3a66696c6c4f726465723a20756e617574686f72697a6564000000006044820152606401610516565b600080611f448c88888861321c565b604080518a81526020810184905290810189905260608101829052851515608082015291935091506001600160a01b038616908d907fcb0008fdd46addf7aad7ee42886d42b47361bac76d14098dc050fbb85b5e48209060a00160405180910390a36003546001600160a01b031615612077576003546040805160e0810182528e8152602081018a8152818301868152606083018b8152608084018781526001600160a01b038c811660a087019081528b151560c088019081529751630eea8e5360e01b8152965160048801529451602487015292516044860152905160648501525160848401529051811660a48301529151151560c4820152911690630eea8e539060e401600060405180830381600087803b15801561206457600080fd5b505af1925050508015612075575060015b505b82156120dc57600254604051630da0df5b60e41b8152600481018e90526001600160a01b039091169063da0df5b090602401600060405180830381600087803b1580156120c357600080fd5b505af11580156120d7573d6000803e3d6000fd5b505050505b505050505050505050505050565b6000546001600160a01b031633146121445760405162461bcd60e51b815260206004820181905260248201527f4f776e61626c653a2063616c6c6572206973206e6f7420746865206f776e65726044820152606401610516565b61214e6000613325565b565b6121598361103d565b6121a55760405162461bcd60e51b815260206004820152601560248201527f4d56313a3a63616e63656c4f726465723a206e6f7400000000000000000000006044820152606401610516565b600254604051632bbc239560e11b8152600481018590526000916001600160a01b031690635778472a906024016101206040518083038186803b1580156121eb57600080fd5b505afa1580156121ff573d6000803e3d6000fd5b505050506040513d601f19601f82011682018060405250810190612223919061404a565b60408101519091506001600160a01b031633146122825760405162461bcd60e51b815260206004820152601e60248201527f4d56313a3a63616e63656c4f726465723a20756e617574686f72697a656400006044820152606401610516565b60015481516040516318459c8560e01b815260048101919091526000916001600160a01b0316906318459c859060240160206040518083038186803b1580156122ca57600080fd5b505afa1580156122de573d6000803e3d6000fd5b505050506040513d601f19601f820116820180604052508101906123029190613b84565b90506000816001600160a01b031663302bacf38787876040518463ffffffff1660e01b8152600401612336939291906141fd565b602060405180830381600087803b15801561235057600080fd5b505af1158015612364573d6000803e3d6000fd5b505050506040513d601f19601f8201168201806040525081019061238891906140a5565b60025460608501516040808701519051635d61f5af60e01b81529394506001600160a01b0390921692635d61f5af926123c99291859190879060040161435a565b600060405180830381600087803b1580156123e357600080fd5b505af11580156123f7573d6000803e3d6000fd5b5050600254604051630da0df5b60e41b8152600481018a90526001600160a01b03909116925063da0df5b09150602401600060405180830381600087803b15801561244157600080fd5b505af1158015612455573d6000803e3d6000fd5b50505050857f33c5b2d2e4db5826ca5ff87cc934fddfc7ff1714b18290e32faffa4f5619b8798260405161248b91815260200190565b60405180910390a2505050505050565b6000806124aa85870187613db3565b915091506124b78261103d565b6125035760405162461bcd60e51b815260206004820152601360248201527f4d56313a3a66696c6c4f726465723a206e6f74000000000000000000000000006044820152606401610516565b600254604051632bbc239560e11b8152600481018490526000916001600160a01b031690635778472a906024016101206040518083038186803b15801561254957600080fd5b505afa15801561255d573d6000803e3d6000fd5b505050506040513d601f19601f82011682018060405250810190612581919061404a565b60015481516040516318459c8560e01b81529293506000926001600160a01b03909216916318459c85916125bb9160040190815260200190565b60206040518083038186803b1580156125d357600080fd5b505afa1580156125e7573d6000803e3d6000fd5b505050506040513d601f19601f8201168201806040525081019061260b9190613b84565b90506000806000806000856001600160a01b031663d5b7008b8a8a6040518363ffffffff1660e01b8152600401612643929190614233565b60a060405180830381600087803b15801561265d57600080fd5b505af1158015612671573d6000803e3d6000fd5b505050506040513d601f19601f8201168201806040525081019061269591906140be565b94509450945094509450816001600160a01b03166126fb6126bf8f8f6040516105e09291906141aa565b8d8d8080601f01602080910402602001604051908101604052809392919081815260200183838082843760009201919091525061309692505050565b6001600160a01b0316146127515760405162461bcd60e51b815260206004820152601c60248201527f4d56313a3a66696c6c4f726465723a20756e617574686f72697a6564000000006044820152606401610516565b6000806127608b88888861321c565b604080518a81526020810184905290810189905260608101829052851515608082015291935091506001600160a01b038616908c907fcb0008fdd46addf7aad7ee42886d42b47361bac76d14098dc050fbb85b5e48209060a00160405180910390a36003546001600160a01b031615612893576003546040805160e0810182528d8152602081018a8152818301868152606083018b8152608084018781526001600160a01b038c811660a087019081528b151560c088019081529751630eea8e5360e01b8152965160048801529451602487015292516044860152905160648501525160848401529051811660a48301529151151560c4820152911690630eea8e539060e401600060405180830381600087803b15801561288057600080fd5b505af1925050508015612891575060015b505b82156128f857600254604051630da0df5b60e41b8152600481018d90526001600160a01b039091169063da0df5b090602401600060405180830381600087803b1580156128df57600080fd5b505af11580156128f3573d6000803e3d6000fd5b505050505b505050505050505050505050505050565b6000546001600160a01b031633146129635760405162461bcd60e51b815260206004820181905260248201527f4f776e61626c653a2063616c6c6572206973206e6f7420746865206f776e65726044820152606401610516565b600580546001600160a01b0319166001600160a01b0383169081179091556040519081527f0c50897633667acdce5d3e9eb08db0920eecff14f248277c32f63a59f58c9df090602001610569565b6000546001600160a01b03163314612a0b5760405162461bcd60e51b815260206004820181905260248201527f4f776e61626c653a2063616c6c6572206973206e6f7420746865206f776e65726044820152606401610516565b6001600160a01b038316612a615760405162461bcd60e51b815260206004820152601760248201527f4d56313a3a73657450546f6b656e3a20696e76616c69640000000000000000006044820152606401610516565b6001600160a01b0383166000908152600660205260409020805460ff198116831515908117835584929161ffff191661ff001990911617610100836003811115612aad57612aad614462565b02179055507f8374d745976572d5405be74037e3de99afb59bb7c6fc6b39de559ed8eadab3a7838383604051612ae5939291906141ba565b60405180910390a1505050565b6000546001600160a01b03163314612b4c5760405162461bcd60e51b815260206004820181905260248201527f4f776e61626c653a2063616c6c6572206973206e6f7420746865206f776e65726044820152606401610516565b6001600160a01b038116612bc85760405162461bcd60e51b815260206004820152602660248201527f4f776e61626c653a206e6577206f776e657220697320746865207a65726f206160448201527f64647265737300000000000000000000000000000000000000000000000000006064820152608401610516565b612bd181613325565b50565b600080612be385870187613db3565b91509150612bf08261103d565b612c3c5760405162461bcd60e51b815260206004820152601560248201527f4d56313a3a63616e63656c4f726465723a206e6f7400000000000000000000006044820152606401610516565b600254604051632bbc239560e11b8152600481018490526000916001600160a01b031690635778472a906024016101206040518083038186803b158015612c8257600080fd5b505afa158015612c96573d6000803e3d6000fd5b505050506040513d601f19601f82011682018060405250810190612cba919061404a565b905080604001516001600160a01b0316612ce06105ed89896040516105e09291906141aa565b6001600160a01b031614612d365760405162461bcd60e51b815260206004820152601e60248201527f4d56313a3a63616e63656c4f726465723a20756e617574686f72697a656400006044820152606401610516565b60015481516040516318459c8560e01b815260048101919091526000916001600160a01b0316906318459c859060240160206040518083038186803b158015612d7e57600080fd5b505afa158015612d92573d6000803e3d6000fd5b505050506040513d601f19601f82011682018060405250810190612db69190613b84565b90506000816001600160a01b031663302bacf386866040518363ffffffff1660e01b8152600401612de8929190614233565b602060405180830381600087803b158015612e0257600080fd5b505af1158015612e16573d6000803e3d6000fd5b505050506040513d601f19601f82011682018060405250810190612e3a91906140a5565b60025460608501516040808701519051635d61f5af60e01b81529394506001600160a01b0390921692635d61f5af92612e7b9291859190879060040161435a565b600060405180830381600087803b158015612e9557600080fd5b505af1158015612ea9573d6000803e3d6000fd5b5050600254604051630da0df5b60e41b8152600481018990526001600160a01b03909116925063da0df5b09150602401600060405180830381600087803b158015612ef357600080fd5b505af1158015612f07573d6000803e3d6000fd5b50505050847f33c5b2d2e4db5826ca5ff87cc934fddfc7ff1714b18290e32faffa4f5619b87982604051612f3d91815260200190565b60405180910390a2505050505050505050565b612f5861393d565b60606000806000806000806000806000808c806020019051810190612f7d9190613dfa565b99509950995099509950995099509950995099506040518060a001604052808b81526020018a8152602001896001600160a01b0316815260200160405180606001604052808a6001600160a01b03168152602001898152602001886003811115612fe957612fe9614462565b6003811115612ffa57612ffa614462565b81525081526020016040518060600160405280876001600160a01b0316815260200186815260200185600381111561303457613034614462565b600381111561304557613045614462565b905290529d909c509a5050505050505050505050565b6040517f19457468657265756d205369676e6564204d6573736167653a0a3332000000006020820152603c8101829052600090605c01611cc4565b60008151604114156130ca5760208201516040830151606084015160001a6130c086828585613375565b93505050506104ba565b8151604014156130f257602082015160408301516130e9858383613520565b925050506104ba565b60405162461bcd60e51b815260206004820152601f60248201527f45434453413a20696e76616c6964207369676e6174757265206c656e677468006044820152606401610516565b8160600151600001516001600160a01b031682604001516001600160a01b0316847fcf8f883073ef7ffa5b6c2e61be62fa53ed42503d6b8d6ea2b15fc77573cfb1e1856060015160200151866060015160400151600381111561319f5761319f614462565b60808801518051602082015160409092015190919060038111156131c5576131c5614462565b8a516020808d015160408051988952918801969096526001600160a01b03909416938601939093526060850191909152608084015260a083015260c082015260e081018690526101000160405180910390a4505050565b600254604051632bbc239560e11b815260048101869052600091829182916001600160a01b031690635778472a906024016101206040518083038186803b15801561326657600080fd5b505afa15801561327a573d6000803e3d6000fd5b505050506040513d601f19601f8201168201806040525081019061329e919061404a565b6080810151516001600160a01b031660009081526006602052604081205491925060ff909116908082156132f7576132e8846080015185606001518987604001518d8d6000613563565b909650945061331c9350505050565b6133138460600151856080015186604001518a8c8e6001613563565b96509450505050505b94509492505050565b600080546001600160a01b038381166001600160a01b0319831681178455604051919092169283917f8be0079c531659141344cd1fd0a4f28419497f9722a3daafe3b4186f6b6457e09190a35050565b60007f7fffffffffffffffffffffffffffffff5d576e7357a4501ddfe92f46681b20a08211156133f25760405162461bcd60e51b815260206004820152602260248201527f45434453413a20696e76616c6964207369676e6174757265202773272076616c604482015261756560f01b6064820152608401610516565b8360ff16601b148061340757508360ff16601c145b61345e5760405162461bcd60e51b815260206004820152602260248201527f45434453413a20696e76616c6964207369676e6174757265202776272076616c604482015261756560f01b6064820152608401610516565b6040805160008082526020820180845288905260ff871692820192909252606081018590526080810184905260019060a0016020604051602081039080840390855afa1580156134b2573d6000803e3d6000fd5b5050604051601f1901519150506001600160a01b0381166135155760405162461bcd60e51b815260206004820152601860248201527f45434453413a20696e76616c6964207369676e617475726500000000000000006044820152606401610516565b90505b949350505050565b60007f7fffffffffffffffffffffffffffffffffffffffffffffffffffffffffffffff821660ff83901c601b0161355986828785613375565b9695505050505050565b6000806000836135735787613580565b6002546001600160a01b03165b905060006135908b8b848a6136cb565b905060006135a08c8c858b613820565b90506000816135af848b61440d565b6135b9919061440d565b9050801561363b57600260009054906101000a90046001600160a01b03166001600160a01b0316635d61f5af8e868d856040518563ffffffff1660e01b8152600401613608949392919061435a565b600060405180830381600087803b15801561362257600080fd5b505af1158015613636573d6000803e3d6000fd5b505050505b6002546001600160a01b0316635d61f5af8d89613663576002546001600160a01b0316613665565b8c5b8e8c6040518563ffffffff1660e01b8152600401613686949392919061435a565b600060405180830381600087803b1580156136a057600080fd5b505af11580156136b4573d6000803e3d6000fd5b50929f999e50989c50505050505050505050505050565b6004546000906001600160a01b03166136e657506000613518565b600480548651865160208801516040517f9eb65c7f0000000000000000000000000000000000000000000000000000000081526001600160a01b0393841695810195909552908216602485015260448401526064830185905260009283929190911690639eb65c7f906084016040805180830381600087803b15801561376b57600080fd5b505af115801561377f573d6000803e3d6000fd5b505050506040513d601f19601f820116820180604052508101906137a39190613d03565b9092509050801561355957600254604051635d61f5af60e01b81526001600160a01b0390911690635d61f5af906137e4908a9089908790879060040161435a565b600060405180830381600087803b1580156137fe57600080fd5b505af1158015613812573d6000803e3d6000fd5b505050509695505050505050565b825160208401516040517f2a55205a0000000000000000000000000000000000000000000000000000000081526004810191909152602481018390526000916001600160a01b031690632a55205a90604401604080518083038186803b15801561388957600080fd5b505afa9250505080156138b9575060408051601f3d908101601f191682019092526138b691810190613d03565b60015b6138c557506000613518565b801561393457600254604051635d61f5af60e01b81526001600160a01b0390911690635d61f5af90613901908a9089908790879060040161435a565b600060405180830381600087803b15801561391b57600080fd5b505af115801561392f573d6000803e3d6000fd5b505050505b91506135189050565b6040518060a00160405280600080191681526020016000815260200160006001600160a01b0316815260200161398a60408051606081018252600080825260208201819052909182015290565b81526020016139b060408051606081018252600080825260208201819052909182015290565b905290565b600082601f8301126139c657600080fd5b8135602067ffffffffffffffff8211156139e2576139e2614478565b8160051b6139f18282016143b4565b838152828101908684018388018501891015613a0c57600080fd5b600093505b85841015613a2f578035835260019390930192918401918401613a11565b50979650505050505050565b60008083601f840112613a4d57600080fd5b50813567ffffffffffffffff811115613a6557600080fd5b602083019150836020828501011115613a7d57600080fd5b9250929050565b600082601f830112613a9557600080fd5b8135613aa8613aa3826143e5565b6143b4565b818152846020838601011115613abd57600080fd5b816020850160208301376000918101602001919091529392505050565b600060608284031215613aec57600080fd5b613af4614368565b90508135613b018161448e565b8152602082810135908201526040820135613b1b816144b1565b604082015292915050565b600060608284031215613b3857600080fd5b613b40614368565b90508151613b4d8161448e565b8152602082810151908201526040820151613b1b816144b1565b600060208284031215613b7957600080fd5b81356110de8161448e565b600060208284031215613b9657600080fd5b81516110de8161448e565b600080600080600060a08688031215613bb957600080fd5b8535613bc48161448e565b94506020860135613bd48161448e565b9350604086013567ffffffffffffffff80821115613bf157600080fd5b613bfd89838a016139b5565b94506060880135915080821115613c1357600080fd5b613c1f89838a016139b5565b93506080880135915080821115613c3557600080fd5b50613c4288828901613a84565b9150509295509295909350565b600080600080600060a08688031215613c6757600080fd5b8535613c728161448e565b94506020860135613c828161448e565b93506040860135925060608601359150608086013567ffffffffffffffff811115613cac57600080fd5b613c4288828901613a84565b600080600060608486031215613ccd57600080fd5b8335613cd88161448e565b92506020840135613ce8816144b1565b91506040840135613cf8816144a3565b809150509250925092565b60008060408385031215613d1657600080fd5b8251613d218161448e565b6020939093015192949293505050565b600060208284031215613d4357600080fd5b81516110de816144a3565b600060208284031215613d6057600080fd5b5035919050565b600080600060408486031215613d7c57600080fd5b83359250602084013567ffffffffffffffff811115613d9a57600080fd5b613da686828701613a3b565b9497909650939450505050565b60008060408385031215613dc657600080fd5b82359150602083013567ffffffffffffffff811115613de457600080fd5b613df085828601613a84565b9150509250929050565b6000806000806000806000806000806101408b8d031215613e1a57600080fd5b8a51995060208b0151985060408b0151613e338161448e565b60608c0151909850613e448161448e565b8097505060808b0151955060a08b0151945060c08b0151613e648161448e565b8094505060e08b015192506101008b015191506101208b015167ffffffffffffffff811115613e9257600080fd5b8b01601f81018d13613ea357600080fd5b8051613eb1613aa3826143e5565b8181528e6020838501011115613ec657600080fd5b613ed7826020830160208601614432565b8093505050509295989b9194979a5092959850565b600060208284031215613efe57600080fd5b81356001600160e01b0319811681146110de57600080fd5b60008060008060408587031215613f2c57600080fd5b843567ffffffffffffffff80821115613f4457600080fd5b613f5088838901613a3b565b90965094506020870135915080821115613f6957600080fd5b50613f7687828801613a3b565b95989497509550505050565b600060208284031215613f9457600080fd5b81356110de816144b1565b6000806000838503610140811215613fb657600080fd5b61012080821215613fc657600080fd5b859450840135905067ffffffffffffffff811115613d9a57600080fd5b60006101208284031215613ff657600080fd5b613ffe614391565b8235815260208301356020820152604083013561401a8161448e565b604082015261402c8460608501613ada565b606082015261403e8460c08501613ada565b60808201529392505050565b6000610120828403121561405d57600080fd5b614065614391565b825181526020830151602082015260408301516140818161448e565b60408201526140938460608501613b26565b606082015261403e8460c08501613b26565b6000602082840312156140b757600080fd5b5051919050565b600080600080600060a086880312156140d657600080fd5b855194506020860151935060408601516140ef8161448e565b60608701519093506141008161448e565b6080870151909250614111816144a3565b809150509295509295909350565b6004811061413d57634e487b7160e01b600052602160045260246000fd5b9052565b803561414c8161448e565b6001600160a01b0316825260208181013590830152604081013561416f816144b1565b61417c604084018261411f565b505050565b6001600160a01b03815116825260208101516020830152604081015161417c604084018261411f565b8183823760009101908152919050565b6001600160a01b0384168152606081016141d7602083018561411f565b8215156040830152949350505050565b8215158152604081016110de602083018461411f565b83815260406020820152816040820152818360608301376000818301606090810191909152601f909201601f1916010192915050565b8281526040602082015260008251806040840152614258816060850160208701614432565b601f01601f1916919091016060019392505050565b600061014082019050838252823560208301526020830135604083015260408301356142988161448e565b6001600160a01b0381166060840152506142b86080830160608501614141565b6110de60e0830160c08501614141565b60006101408201905083825282516020830152602083015160408301526001600160a01b036040840151166060830152606083015161430a6080840182614181565b50608083015161431d60e0840182614181565b509392505050565b60c081016143338287614141565b6001600160a01b03948516606083015292909316608084015260a090920191909152919050565b60c081016143338287614181565b6040516060810167ffffffffffffffff8111828210171561438b5761438b614478565b60405290565b60405160a0810167ffffffffffffffff8111828210171561438b5761438b614478565b604051601f8201601f1916810167ffffffffffffffff811182821017156143dd576143dd614478565b604052919050565b600067ffffffffffffffff8211156143ff576143ff614478565b50601f01601f191660200190565b60008282101561442d57634e487b7160e01b600052601160045260246000fd5b500390565b60005b8381101561444d578181015183820152602001614435565b8381111561445c576000848401525b50505050565b634e487b7160e01b600052602160045260246000fd5b634e487b7160e01b600052604160045260246000fd5b6001600160a01b0381168114612bd157600080fd5b8015158114612bd157600080fd5b60048110612bd157600080fdfea2646970667358221220f3c05fa1aefc937445552ad3815dca3913de2dbfd45cfc467ed590f9a63ff59964736f6c63430008070033",
  "linkReferences": {},
  "deployedLinkReferences": {}
}