{
  "_format": "hh-sol-artifact-1",
  "contractName": "MarketplaceV2",
  "sourceName": "contracts/MarketplaceV2.sol",
  "abi": [
    {
      "inputs": [
        {
          "internalType": "address",
          "name": "_governor",
          "type": "address"
        },
        {
          "internalType": "address payable",
          "name": "_warehouse",
          "type": "address"
        },
        {
          "internalType": "address",
          "name": "_strategyRegistry",
          "type": "address"
        },
        {
          "internalType": "address",
          "name": "_feeManager",
          "type": "address"
        },
        {
          "internalType": "address",
          "name": "_blacklistManager",
          "type": "address"
        },
        {
          "internalType": "address",
          "name": "_swapListener",
          "type": "address"
        },
        {
          "internalType": "address",
          "name": "_paymentTokenManager",
          "type": "address"
        }
      ],
      "stateMutability": "nonpayable",
      "type": "constructor"
    },
    {
      "anonymous": false,
      "inputs": [
        {
          "indexed": false,
          "internalType": "address",
          "name": "blacklistManager",
          "type": "address"
        }
      ],
      "name": "BlacklistManagerSet",
      "type": "event"
    },
    {
      "anonymous": false,
      "inputs": [
        {
          "indexed": true,
          "internalType": "bytes32",
          "name": "orderHash",
          "type": "bytes32"
        },
        {
          "indexed": false,
          "internalType": "uint256",
          "name": "sellerGetsBackAmount",
          "type": "uint256"
        }
      ],
      "name": "Cancel",
      "type": "event"
    },
    {
      "anonymous": false,
      "inputs": [
        {
          "indexed": false,
          "internalType": "address",
          "name": "feeManager",
          "type": "address"
        }
      ],
      "name": "FeeManagerSet",
      "type": "event"
    },
    {
      "anonymous": false,
      "inputs": [
        {
          "indexed": true,
          "internalType": "bytes32",
          "name": "orderHash",
          "type": "bytes32"
        },
        {
          "indexed": true,
          "internalType": "address",
          "name": "buyer",
          "type": "address"
        },
        {
          "indexed": false,
          "internalType": "uint256",
          "name": "buyerSendsAmountFull",
          "type": "uint256"
        },
        {
          "indexed": false,
          "internalType": "uint256",
          "name": "buyerSentAmount",
          "type": "uint256"
        },
        {
          "indexed": false,
          "internalType": "uint256",
          "name": "sellerSendsAmountFull",
          "type": "uint256"
        },
        {
          "indexed": false,
          "internalType": "uint256",
          "name": "sellerSentAmount",
          "type": "uint256"
        },
        {
          "indexed": false,
          "internalType": "bool",
          "name": "complete",
          "type": "bool"
        }
      ],
      "name": "Fill",
      "type": "event"
    },
    {
      "anonymous": false,
      "inputs": [
        {
          "indexed": true,
          "internalType": "bytes32",
          "name": "orderHash",
          "type": "bytes32"
        },
        {
          "indexed": true,
          "internalType": "address",
          "name": "seller",
          "type": "address"
        },
        {
          "indexed": true,
          "internalType": "address",
          "name": "sellAssetAddress",
          "type": "address"
        },
        {
          "indexed": false,
          "internalType": "uint256",
          "name": "sellAssetId",
          "type": "uint256"
        },
        {
          "indexed": false,
          "internalType": "uint256",
          "name": "sellAssetType",
          "type": "uint256"
        },
        {
          "indexed": false,
          "internalType": "address",
          "name": "buyAssetAddress",
          "type": "address"
        },
        {
          "indexed": false,
          "internalType": "uint256",
          "name": "buyAssetId",
          "type": "uint256"
        },
        {
          "indexed": false,
          "internalType": "uint256",
          "name": "buyAssetType",
          "type": "uint256"
        },
        {
          "indexed": false,
          "internalType": "bytes32",
          "name": "strategy",
          "type": "bytes32"
        },
        {
          "indexed": false,
          "internalType": "uint256",
          "name": "salt",
          "type": "uint256"
        },
        {
          "indexed": false,
          "internalType": "uint256",
          "name": "sellerEscrowsAmount",
          "type": "uint256"
        }
      ],
      "name": "Order",
      "type": "event"
    },
    {
      "anonymous": false,
      "inputs": [
        {
          "indexed": true,
          "internalType": "address",
          "name": "previousOwner",
          "type": "address"
        },
        {
          "indexed": true,
          "internalType": "address",
          "name": "newOwner",
          "type": "address"
        }
      ],
      "name": "OwnershipTransferred",
      "type": "event"
    },
    {
      "anonymous": false,
      "inputs": [
        {
          "indexed": false,
          "internalType": "address",
          "name": "paymentTokenManager",
          "type": "address"
        }
      ],
      "name": "PaymentTokenManagerSet",
      "type": "event"
    },
    {
      "anonymous": false,
      "inputs": [
        {
          "indexed": false,
          "internalType": "address",
          "name": "token",
          "type": "address"
        },
        {
          "indexed": false,
          "internalType": "enum DomainV1.AssetType",
          "name": "assetType",
          "type": "uint8"
        },
        {
          "indexed": false,
          "internalType": "bool",
          "name": "enabled",
          "type": "bool"
        }
      ],
      "name": "PaymentTokenSet",
      "type": "event"
    },
    {
      "anonymous": false,
      "inputs": [
        {
          "indexed": false,
          "internalType": "address",
          "name": "registry",
          "type": "address"
        }
      ],
      "name": "StrategyRegistrySet",
      "type": "event"
    },
    {
      "anonymous": false,
      "inputs": [
        {
          "indexed": false,
          "internalType": "address",
          "name": "listener",
          "type": "address"
        }
      ],
      "name": "SwapListenerSet",
      "type": "event"
    },
    {
      "anonymous": false,
      "inputs": [
        {
          "indexed": false,
          "internalType": "address",
          "name": "warehouse",
          "type": "address"
        }
      ],
      "name": "WarehouseSet",
      "type": "event"
    },
    {
      "inputs": [],
      "name": "blacklistManager",
      "outputs": [
        {
          "internalType": "contract IBlacklistManager",
          "name": "",
          "type": "address"
        }
      ],
      "stateMutability": "view",
      "type": "function"
    },
    {
      "inputs": [
        {
          "components": [
            {
              "internalType": "bytes32",
              "name": "strategy",
              "type": "bytes32"
            },
            {
              "internalType": "uint256",
              "name": "salt",
              "type": "uint256"
            },
            {
              "internalType": "address",
              "name": "seller",
              "type": "address"
            },
            {
              "components": [
                {
                  "internalType": "address",
                  "name": "addr",
                  "type": "address"
                },
                {
                  "internalType": "uint256",
                  "name": "id",
                  "type": "uint256"
                },
                {
                  "internalType": "enum DomainV1.AssetType",
                  "name": "assetType",
                  "type": "uint8"
                }
              ],
              "internalType": "struct DomainV1.Asset",
              "name": "sellAsset",
              "type": "tuple"
            },
            {
              "components": [
                {
                  "internalType": "address",
                  "name": "addr",
                  "type": "address"
                },
                {
                  "internalType": "uint256",
                  "name": "id",
                  "type": "uint256"
                },
                {
                  "internalType": "enum DomainV1.AssetType",
                  "name": "assetType",
                  "type": "uint8"
                }
              ],
              "internalType": "struct DomainV1.Asset",
              "name": "buyAsset",
              "type": "tuple"
            }
          ],
          "internalType": "struct DomainV1.Order",
          "name": "_order",
          "type": "tuple"
        }
      ],
      "name": "calculateOrderHash",
      "outputs": [
        {
          "internalType": "bytes32",
          "name": "",
          "type": "bytes32"
        }
      ],
      "stateMutability": "pure",
      "type": "function"
    },
    {
      "inputs": [
        {
          "internalType": "bytes32",
          "name": "_orderHash",
          "type": "bytes32"
        },
        {
          "internalType": "bytes",
          "name": "cancelData",
          "type": "bytes"
        }
      ],
      "name": "cancelOrder",
      "outputs": [],
      "stateMutability": "nonpayable",
      "type": "function"
    },
    {
      "inputs": [
        {
          "internalType": "bytes",
          "name": "cancelOrderData",
          "type": "bytes"
        },
        {
          "internalType": "bytes",
          "name": "signature",
          "type": "bytes"
        }
      ],
      "name": "cancelOrderSig",
      "outputs": [],
      "stateMutability": "nonpayable",
      "type": "function"
    },
    {
      "inputs": [
        {
          "components": [
            {
              "internalType": "bytes32",
              "name": "strategy",
              "type": "bytes32"
            },
            {
              "internalType": "uint256",
              "name": "salt",
              "type": "uint256"
            },
            {
              "internalType": "address",
              "name": "seller",
              "type": "address"
            },
            {
              "components": [
                {
                  "internalType": "address",
                  "name": "addr",
                  "type": "address"
                },
                {
                  "internalType": "uint256",
                  "name": "id",
                  "type": "uint256"
                },
                {
                  "internalType": "enum DomainV1.AssetType",
                  "name": "assetType",
                  "type": "uint8"
                }
              ],
              "internalType": "struct DomainV1.Asset",
              "name": "sellAsset",
              "type": "tuple"
            },
            {
              "components": [
                {
                  "internalType": "address",
                  "name": "addr",
                  "type": "address"
                },
                {
                  "internalType": "uint256",
                  "name": "id",
                  "type": "uint256"
                },
                {
                  "internalType": "enum DomainV1.AssetType",
                  "name": "assetType",
                  "type": "uint8"
                }
              ],
              "internalType": "struct DomainV1.Asset",
              "name": "buyAsset",
              "type": "tuple"
            }
          ],
          "internalType": "struct DomainV1.Order",
          "name": "_order",
          "type": "tuple"
        },
        {
          "internalType": "bytes",
          "name": "createData",
          "type": "bytes"
        }
      ],
      "name": "createOrder",
      "outputs": [
        {
          "internalType": "bytes32",
          "name": "orderHash",
          "type": "bytes32"
        }
      ],
      "stateMutability": "payable",
      "type": "function"
    },
    {
      "inputs": [
        {
          "internalType": "bytes",
          "name": "createOrderData",
          "type": "bytes"
        },
        {
          "internalType": "bytes",
          "name": "signature",
          "type": "bytes"
        }
      ],
      "name": "createOrderSig",
      "outputs": [
        {
          "internalType": "bytes32",
          "name": "orderHash",
          "type": "bytes32"
        }
      ],
      "stateMutability": "payable",
      "type": "function"
    },
    {
      "inputs": [
        {
          "internalType": "address payable",
          "name": "_target",
          "type": "address"
        }
      ],
      "name": "drain",
      "outputs": [],
      "stateMutability": "nonpayable",
      "type": "function"
    },
    {
      "inputs": [],
      "name": "feeManager",
      "outputs": [
        {
          "internalType": "contract IFeeManager",
          "name": "",
          "type": "address"
        }
      ],
      "stateMutability": "view",
      "type": "function"
    },
    {
      "inputs": [
        {
          "internalType": "bytes32",
          "name": "_orderHash",
          "type": "bytes32"
        },
        {
          "internalType": "bytes",
          "name": "fillData",
          "type": "bytes"
        }
      ],
      "name": "fillOrder",
      "outputs": [],
      "stateMutability": "payable",
      "type": "function"
    },
    {
      "inputs": [
        {
          "internalType": "bytes",
          "name": "fillOrderData",
          "type": "bytes"
        },
        {
          "internalType": "bytes",
          "name": "signature",
          "type": "bytes"
        }
      ],
      "name": "fillOrderSig",
      "outputs": [],
      "stateMutability": "payable",
      "type": "function"
    },
    {
      "inputs": [
        {
          "internalType": "address",
          "name": "",
          "type": "address"
        },
        {
          "internalType": "address",
          "name": "",
          "type": "address"
        },
        {
          "internalType": "uint256[]",
          "name": "",
          "type": "uint256[]"
        },
        {
          "internalType": "uint256[]",
          "name": "",
          "type": "uint256[]"
        },
        {
          "internalType": "bytes",
          "name": "",
          "type": "bytes"
        }
      ],
      "name": "onERC1155BatchReceived",
      "outputs": [
        {
          "internalType": "bytes4",
          "name": "",
          "type": "bytes4"
        }
      ],
      "stateMutability": "nonpayable",
      "type": "function"
    },
    {
      "inputs": [
        {
          "internalType": "address",
          "name": "",
          "type": "address"
        },
        {
          "internalType": "address",
          "name": "",
          "type": "address"
        },
        {
          "internalType": "uint256",
          "name": "",
          "type": "uint256"
        },
        {
          "internalType": "uint256",
          "name": "",
          "type": "uint256"
        },
        {
          "internalType": "bytes",
          "name": "",
          "type": "bytes"
        }
      ],
      "name": "onERC1155Received",
      "outputs": [
        {
          "internalType": "bytes4",
          "name": "",
          "type": "bytes4"
        }
      ],
      "stateMutability": "nonpayable",
      "type": "function"
    },
    {
      "inputs": [
        {
          "internalType": "bytes32",
          "name": "_orderHash",
          "type": "bytes32"
        }
      ],
      "name": "orderExists",
      "outputs": [
        {
          "internalType": "bool",
          "name": "",
          "type": "bool"
        }
      ],
      "stateMutability": "view",
      "type": "function"
    },
    {
      "inputs": [],
      "name": "owner",
      "outputs": [
        {
          "internalType": "address",
          "name": "",
          "type": "address"
        }
      ],
      "stateMutability": "view",
      "type": "function"
    },
    {
      "inputs": [],
      "name": "paymentTokenManager",
      "outputs": [
        {
          "internalType": "contract IPaymentTokenManager",
          "name": "",
          "type": "address"
        }
      ],
      "stateMutability": "view",
      "type": "function"
    },
    {
      "inputs": [],
      "name": "renounceOwnership",
      "outputs": [],
      "stateMutability": "nonpayable",
      "type": "function"
    },
    {
      "inputs": [
        {
          "internalType": "address",
          "name": "_blacklistManager",
          "type": "address"
        }
      ],
      "name": "setBlacklistManager",
      "outputs": [],
      "stateMutability": "nonpayable",
      "type": "function"
    },
    {
      "inputs": [
        {
          "internalType": "address",
          "name": "_feeManager",
          "type": "address"
        }
      ],
      "name": "setFeeManager",
      "outputs": [],
      "stateMutability": "nonpayable",
      "type": "function"
    },
    {
      "inputs": [
        {
          "internalType": "address",
          "name": "_paymentTokenManager",
          "type": "address"
        }
      ],
      "name": "setPaymentTokenManager",
      "outputs": [],
      "stateMutability": "nonpayable",
      "type": "function"
    },
    {
      "inputs": [
        {
          "internalType": "address",
          "name": "_newStrategyRegistry",
          "type": "address"
        }
      ],
      "name": "setStrategyRegistry",
      "outputs": [],
      "stateMutability": "nonpayable",
      "type": "function"
    },
    {
      "inputs": [
        {
          "internalType": "address",
          "name": "_swapListener",
          "type": "address"
        }
      ],
      "name": "setSwapListener",
      "outputs": [],
      "stateMutability": "nonpayable",
      "type": "function"
    },
    {
      "inputs": [
        {
          "internalType": "address payable",
          "name": "_newWarehouse",
          "type": "address"
        }
      ],
      "name": "setWarehouse",
      "outputs": [],
      "stateMutability": "nonpayable",
      "type": "function"
    },
    {
      "inputs": [],
      "name": "strategyRegistry",
      "outputs": [
        {
          "internalType": "contract StrategyRegistry",
          "name": "",
          "type": "address"
        }
      ],
      "stateMutability": "view",
      "type": "function"
    },
    {
      "inputs": [
        {
          "internalType": "bytes4",
          "name": "interfaceId",
          "type": "bytes4"
        }
      ],
      "name": "supportsInterface",
      "outputs": [
        {
          "internalType": "bool",
          "name": "",
          "type": "bool"
        }
      ],
      "stateMutability": "view",
      "type": "function"
    },
    {
      "inputs": [],
      "name": "swapListener",
      "outputs": [
        {
          "internalType": "contract ISwapListener",
          "name": "",
          "type": "address"
        }
      ],
      "stateMutability": "view",
      "type": "function"
    },
    {
      "inputs": [
        {
          "internalType": "address",
          "name": "newOwner",
          "type": "address"
        }
      ],
      "name": "transferOwnership",
      "outputs": [],
      "stateMutability": "nonpayable",
      "type": "function"
    },
    {
      "inputs": [],
      "name": "warehouse",
      "outputs": [
        {
          "internalType": "contract Warehouse",
          "name": "",
          "type": "address"
        }
      ],
      "stateMutability": "view",
      "type": "function"
    },
    {
      "stateMutability": "payable",
      "type": "receive"
    }
  ],
  "bytecode": "0x60806040523480156200001157600080fd5b5060405162004d5538038062004d5583398101604081905262000034916200033c565b6200003f3362000217565b600280546001600160a01b03199081166001600160a01b03898116918217909355600180548316898516179055600380548316868516179055600480548316888516179055600580548316878516179055600680549092169284169290921790556040519081527f6e4bc0c5b03329134d6cd2b8bd05d066f3d18885e85d302af10d11c0b7a7a8d59060200160405180910390a16040516001600160a01b03861681527fc8f6f976c20221cfca1498913573ed2bc921d8f3c6e4b7d1fcf4d228628bbd109060200160405180910390a16040516001600160a01b03851681527fbf5f580614969fb819b8af01f7cc62fe0e0146feaf98d7aee42e76bb0bee8e639060200160405180910390a16040516001600160a01b03841681527f0c50897633667acdce5d3e9eb08db0920eecff14f248277c32f63a59f58c9df09060200160405180910390a16040516001600160a01b03821681527fbfa09f9599e6d50c954e9c3d758f909c844ae7c03a90314249a708f5dcc3c0479060200160405180910390a16040516001600160a01b03831681527f24c2328d6ab44b1cfb0c32248791fda1075409b7c64141cc432de4c24e7b0a5e9060200160405180910390a16200020a8762000267565b50505050505050620003fd565b600080546001600160a01b038381166001600160a01b0319831681178455604051919092169283917f8be0079c531659141344cd1fd0a4f28419497f9722a3daafe3b4186f6b6457e09190a35050565b6000546001600160a01b03163314620002c75760405162461bcd60e51b815260206004820181905260248201527f4f776e61626c653a2063616c6c6572206973206e6f7420746865206f776e657260448201526064015b60405180910390fd5b6001600160a01b0381166200032e5760405162461bcd60e51b815260206004820152602660248201527f4f776e61626c653a206e6577206f776e657220697320746865207a65726f206160448201526564647265737360d01b6064820152608401620002be565b620003398162000217565b50565b600080600080600080600060e0888a0312156200035857600080fd5b87516200036581620003e7565b60208901519097506200037881620003e7565b60408901519096506200038b81620003e7565b60608901519095506200039e81620003e7565b6080890151909450620003b181620003e7565b60a0890151909350620003c481620003e7565b60c0890151909250620003d781620003e7565b8091505092959891949750929550565b6001600160a01b03811681146200033957600080fd5b614948806200040d6000396000f3fe6080604052600436106101b05760003560e01c80639b622769116100ec578063d9dbf6571161008a578063f23a6e6111610064578063f23a6e61146104d2578063f2fde38b14610517578063f4764dca14610537578063ff3b46e31461055757600080fd5b8063d9dbf65714610472578063ece5313214610492578063f0a76eb2146104b257600080fd5b8063a7e31d4b116100c6578063a7e31d4b146103b4578063bc197c81146103d4578063d080bf2714610432578063d0fb02031461045257600080fd5b80639b62276914610361578063a4302fcb14610381578063a56c62cf1461039457600080fd5b806333a1e0da116101595780636e970293116101335780636e970293146102e7578063715018a6146102fa5780637713fb181461030f5780638da5cb5b1461032f57600080fd5b806333a1e0da14610294578063472d35b9146102a7578063579d07cf146102c757600080fd5b80632479e2571161018a5780632479e257146102345780632cb77e9f146102545780632ef515961461027457600080fd5b806301ffc9a7146101bc57806309b0b210146101f1578063244806161461021357600080fd5b366101b757005b600080fd5b3480156101c857600080fd5b506101dc6101d7366004614360565b610577565b60405190151581526020015b60405180910390f35b3480156101fd57600080fd5b5061021161020c366004613fcf565b6105e0565b005b61022661022136600461438a565b610694565b6040519081526020016101e8565b34801561024057600080fd5b5061021161024f366004613fcf565b611108565b34801561026057600080fd5b506101dc61026f3660046141c2565b611206565b34801561028057600080fd5b5061021161028f366004613fcf565b6112ae565b6102266102a2366004614413565b6113ac565b3480156102b357600080fd5b506102116102c2366004613fcf565b611e34565b3480156102d357600080fd5b506102266102e2366004614457565b611edc565b6102116102f53660046141db565b611f6e565b34801561030657600080fd5b50610211612425565b34801561031b57600080fd5b5061021161032a3660046141db565b61248b565b34801561033b57600080fd5b506000546001600160a01b03165b6040516001600160a01b0390911681526020016101e8565b34801561036d57600080fd5b50600254610349906001600160a01b031681565b61021161038f36600461438a565b6127d6565b3480156103a057600080fd5b506102116103af366004613fcf565b612cf2565b3480156103c057600080fd5b506102116103cf366004613fcf565b612d9a565b3480156103e057600080fd5b506104196103ef366004614009565b7fbc197c810000000000000000000000000000000000000000000000000000000095945050505050565b6040516001600160e01b031990911681526020016101e8565b34801561043e57600080fd5b50600154610349906001600160a01b031681565b34801561045e57600080fd5b50600454610349906001600160a01b031681565b34801561047e57600080fd5b50600554610349906001600160a01b031681565b34801561049e57600080fd5b506102116104ad366004613fcf565b612e42565b3480156104be57600080fd5b50600654610349906001600160a01b031681565b3480156104de57600080fd5b506104196104ed3660046140b7565b7ff23a6e610000000000000000000000000000000000000000000000000000000095945050505050565b34801561052357600080fd5b50610211610532366004613fcf565b612ed5565b34801561054357600080fd5b5061021161055236600461438a565b612fb7565b34801561056357600080fd5b50600354610349906001600160a01b031681565b60006001600160e01b031982167f4e2312e00000000000000000000000000000000000000000000000000000000014806105da57507f01ffc9a7000000000000000000000000000000000000000000000000000000006001600160e01b03198316145b92915050565b6000546001600160a01b0316331461063f5760405162461bcd60e51b815260206004820181905260248201527f4f776e61626c653a2063616c6c6572206973206e6f7420746865206f776e657260448201526064015b60405180910390fd5b600380546001600160a01b0319166001600160a01b0383169081179091556040519081527f24c2328d6ab44b1cfb0c32248791fda1075409b7c64141cc432de4c24e7b0a5e906020015b60405180910390a150565b60008060006106d887878080601f01602080910402602001604051908101604052809392919081815260200183838082843760009201919091525061333392505050565b9150915081604001516001600160a01b031661074961070d8989604051610700929190614619565b604051809103902061343e565b87878080601f01602080910402602001604051908101604052809392919081815260200183838082843760009201919091525061347992505050565b6001600160a01b03161461079f5760405162461bcd60e51b815260206004820152601e60248201527f4d56313a3a6372656174654f726465723a20756e617574686f72697a656400006044820152606401610636565b6005546001600160a01b031615610928576005546060830151805160209091015160405163e757148360e01b81526001600160a01b039283166004820152602481019190915291169063e75714839060440160206040518083038186803b15801561080957600080fd5b505afa15801561081d573d6000803e3d6000fd5b505050506040513d601f19601f82011682018060405250810190610841919061414e565b1580156108dc57506005546080830151805160209091015160405163e757148360e01b81526001600160a01b039283166004820152602481019190915291169063e75714839060440160206040518083038186803b1580156108a257600080fd5b505afa1580156108b6573d6000803e3d6000fd5b505050506040513d601f19601f820116820180604052508101906108da919061414e565b155b6109285760405162461bcd60e51b815260206004820152601d60248201527f4d56313a3a6372656174654f726465723a20626c61636b6c69737465640000006044820152606401610636565b61093182611edc565b600254604051631b9458a360e01b8152600481018390529194506001600160a01b031690631b9458a39060240160206040518083038186803b15801561097657600080fd5b505afa15801561098a573d6000803e3d6000fd5b505050506040513d601f19601f820116820180604052508101906109ae919061414e565b1580156109c157506109bf83611206565b155b610a0d5760405162461bcd60e51b815260206004820152601960248201527f4d56313a3a6372656174654f726465723a20616c7265616479000000000000006044820152606401610636565b60008260600151604001516004811115610a2957610a296148c4565b1415610a775760405162461bcd60e51b815260206004820152601c60248201527f4d56313a3a6372656174654f726465723a20736120756e6b6e6f776e000000006044820152606401610636565b60008260800151604001516004811115610a9357610a936148c4565b1415610ae15760405162461bcd60e51b815260206004820152601c60248201527f4d56313a3a6372656174654f726465723a20626120756e6b6e6f776e000000006044820152606401610636565b600060018360800151604001516004811115610aff57610aff6148c4565b149050600060018460600151604001516004811115610b2057610b206148c4565b14905060028460800151604001516004811115610b3f57610b3f6148c4565b1480610b485750815b15610ba35760808401516020015115610ba35760405162461bcd60e51b815260206004820152601d60248201527f4d56313a3a6372656174654f726465723a206261206964206e6f7420300000006044820152606401610636565b60028460600151604001516004811115610bbf57610bbf6148c4565b1480610bc85750805b15610c235760608401516020015115610c235760405162461bcd60e51b815260206004820152601d60248201527f4d56313a3a6372656174654f726465723a206261206964206e6f7420300000006044820152606401610636565b6006546060850151608086015160405163cf2e2fed60e01b81526000938493849384936001600160a01b039093169263cf2e2fed92610c669290916004016147af565b60806040518083038186803b158015610c7e57600080fd5b505afa158015610c92573d6000803e3d6000fd5b505050506040513d601f19601f82011682018060405250810190610cb69190614169565b9350935093509350838015610cf457508760600151604001516004811115610ce057610ce06148c4565b826004811115610cf257610cf26148c4565b145b80610d305750828015610d3057508760800151604001516004811115610d1c57610d1c6148c4565b816004811115610d2e57610d2e6148c4565b145b610d7c5760405162461bcd60e51b815260206004820152601e60248201527f4d56313a3a6372656174654f726465723a2070746f6b656e206572726f7200006044820152606401610636565b6002546040516319d660ed60e11b81526001600160a01b03909116906333acc1da90610dae908c908c906004016146f4565b600060405180830381600087803b158015610dc857600080fd5b505af1158015610ddc573d6000803e3d6000fd5b50506001548a516040516318459c8560e01b81526004810191909152600093506001600160a01b0390911691506318459c859060240160206040518083038186803b158015610e2a57600080fd5b505afa158015610e3e573d6000803e3d6000fd5b505050506040513d601f19601f82011682018060405250810190610e629190613fec565b90506000816001600160a01b0316635b37e1508c8b6040518363ffffffff1660e01b8152600401610e9492919061465f565b602060405180830381600087803b158015610eae57600080fd5b505af1158015610ec2573d6000803e3d6000fd5b505050506040513d601f19601f82011682018060405250810190610ee69190614519565b905060038a60600151604001516004811115610f0457610f046148c4565b1415610f5a5780600114610f5a5760405162461bcd60e51b815260206004820152601c60248201527f4d56313a3a6372656174654f726465723a20656120696e76616c6964000000006044820152606401610636565b8615610ff05780341015610fb05760405162461bcd60e51b815260206004820152601e60248201527f4d56313a3a6372656174654f726465723a20696e73756666696369656e7400006044820152606401610636565b6002546040516001600160a01b039091169082156108fc029083906000818181858888f19350505050158015610fea573d6000803e3d6000fd5b50611061565b60025460608b01516040808d01519051635d61f5af60e01b81526001600160a01b0390931692635d61f5af9261102e929091859087906004016147a1565b600060405180830381600087803b15801561104857600080fd5b505af115801561105c573d6000803e3d6000fd5b505050505b60025460408b81015190517f153283450000000000000000000000000000000000000000000000000000000081526001600160a01b039182166004820152602481018e905260448101849052911690631532834590606401600060405180830381600087803b1580156110d357600080fd5b505af11580156110e7573d6000803e3d6000fd5b505050506110f68b8b8361351d565b50505050505050505050949350505050565b6000546001600160a01b031633146111625760405162461bcd60e51b815260206004820181905260248201527f4f776e61626c653a2063616c6c6572206973206e6f7420746865206f776e65726044820152606401610636565b6001600160a01b0381166111b85760405162461bcd60e51b815260206004820152601760248201527f4d56313a3a73657457686f7573653a20696e76616c69640000000000000000006044820152606401610636565b600280546001600160a01b0319166001600160a01b0383169081179091556040519081527f6e4bc0c5b03329134d6cd2b8bd05d066f3d18885e85d302af10d11c0b7a7a8d590602001610689565b600254604051632bbc239560e11b81526004810183905260009182916001600160a01b0390911690635778472a906024016101206040518083038186803b15801561125057600080fd5b505afa158015611264573d6000803e3d6000fd5b505050506040513d601f19601f8201168201806040525081019061128891906144be565b8051909150158015906112a7575060408101516001600160a01b031615155b9392505050565b6000546001600160a01b031633146113085760405162461bcd60e51b815260206004820181905260248201527f4f776e61626c653a2063616c6c6572206973206e6f7420746865206f776e65726044820152606401610636565b6001600160a01b03811661135e5760405162461bcd60e51b815260206004820152601360248201527f4d56313a3a73657453523a20696e76616c6964000000000000000000000000006044820152606401610636565b600180546001600160a01b0319166001600160a01b0383169081179091556040519081527fc8f6f976c20221cfca1498913573ed2bc921d8f3c6e4b7d1fcf4d228628bbd1090602001610689565b6000336113bf6060860160408701613fcf565b6001600160a01b0316146114155760405162461bcd60e51b815260206004820152601e60248201527f4d56313a3a6372656174654f726465723a20756e617574686f72697a656400006044820152606401610636565b6005546001600160a01b0316156115c0576005546001600160a01b031663e75714836114476080870160608801613fcf565b60405160e083901b6001600160e01b03191681526001600160a01b0390911660048201526080870135602482015260440160206040518083038186803b15801561149057600080fd5b505afa1580156114a4573d6000803e3d6000fd5b505050506040513d601f19601f820116820180604052508101906114c8919061414e565b15801561157457506005546001600160a01b031663e75714836114f160e0870160c08801613fcf565b60405160e083811b6001600160e01b03191682526001600160a01b0392909216600482015290870135602482015260440160206040518083038186803b15801561153a57600080fd5b505afa15801561154e573d6000803e3d6000fd5b505050506040513d601f19601f82011682018060405250810190611572919061414e565b155b6115c05760405162461bcd60e51b815260206004820152601d60248201527f4d56313a3a6372656174654f726465723a20626c61636b6c69737465640000006044820152606401610636565b6115d26102e236869003860186614457565b600254604051631b9458a360e01b8152600481018390529192506001600160a01b031690631b9458a39060240160206040518083038186803b15801561161757600080fd5b505afa15801561162b573d6000803e3d6000fd5b505050506040513d601f19601f8201168201806040525081019061164f919061414e565b158015611662575061166081611206565b155b6116ae5760405162461bcd60e51b815260206004820152601b60248201527f4d56313a3a6372656174654f726465723a20616c7265616479206500000000006044820152606401610636565b60006116c060c0860160a087016143f6565b60048111156116d1576116d16148c4565b141561171f5760405162461bcd60e51b815260206004820152601c60248201527f4d56313a3a6372656174654f726465723a20736120756e6b6e6f776e000000006044820152606401610636565b6000611733610120860161010087016143f6565b6004811115611744576117446148c4565b14156117925760405162461bcd60e51b815260206004820152601c60248201527f4d56313a3a6372656174654f726465723a20626120756e6b6e6f776e000000006044820152606401610636565b600060016117a8610120870161010088016143f6565b60048111156117b9576117b96148c4565b149050600060016117d060c0880160a089016143f6565b60048111156117e1576117e16148c4565b14905060026117f8610120880161010089016143f6565b6004811115611809576118096148c4565b14806118125750815b156118695760e0860135156118695760405162461bcd60e51b815260206004820152601d60248201527f4d56313a3a6372656174654f726465723a206261206964206e6f7420300000006044820152606401610636565b600261187b60c0880160a089016143f6565b600481111561188c5761188c6148c4565b14806118955750805b156118ec576080860135156118ec5760405162461bcd60e51b815260206004820152601d60248201527f4d56313a3a6372656174654f726465723a207361206964206e6f7420300000006044820152606401610636565b60065460405163cf2e2fed60e01b81526000918291829182916001600160a01b039091169063cf2e2fed9061192d9060608e019060c08f0190600401614786565b60806040518083038186803b15801561194557600080fd5b505afa158015611959573d6000803e3d6000fd5b505050506040513d601f19601f8201168201806040525081019061197d9190614169565b93509350935093508380156119c2575061199d60c08b0160a08c016143f6565b60048111156119ae576119ae6148c4565b8260048111156119c0576119c06148c4565b145b80611a075750828015611a0757506119e26101208b016101008c016143f6565b60048111156119f3576119f36148c4565b816004811115611a0557611a056148c4565b145b611a535760405162461bcd60e51b815260206004820152601e60248201527f4d56313a3a6372656174654f726465723a2070746f6b656e206572726f7200006044820152606401610636565b6002546040516319d660ed60e11b81526001600160a01b03909116906333acc1da90611a85908a908e90600401614699565b600060405180830381600087803b158015611a9f57600080fd5b505af1158015611ab3573d6000803e3d6000fd5b50506001546040516318459c8560e01b81528d356004820152600093506001600160a01b0390911691506318459c859060240160206040518083038186803b158015611afe57600080fd5b505afa158015611b12573d6000803e3d6000fd5b505050506040513d601f19601f82011682018060405250810190611b369190613fec565b90506000816001600160a01b0316635b37e1508a8d8d6040518463ffffffff1660e01b8152600401611b6a93929190614629565b602060405180830381600087803b158015611b8457600080fd5b505af1158015611b98573d6000803e3d6000fd5b505050506040513d601f19601f82011682018060405250810190611bbc9190614519565b90506003611bd060c08e0160a08f016143f6565b6004811115611be157611be16148c4565b1415611c375780600114611c375760405162461bcd60e51b815260206004820152601c60248201527f4d56313a3a6372656174654f726465723a20656120696e76616c6964000000006044820152606401610636565b8615611ccd5780341015611c8d5760405162461bcd60e51b815260206004820152601e60248201527f4d56313a3a6372656174654f726465723a20696e73756666696369656e7400006044820152606401610636565b6002546040516001600160a01b039091169082156108fc029083906000818181858888f19350505050158015611cc7573d6000803e3d6000fd5b50611d6c565b600260009054906101000a90046001600160a01b03166001600160a01b0316635d61f5af8d6060018e6040016020810190611d089190613fcf565b6002546040516001600160e01b031960e086901b168152611d399392916001600160a01b0316908790600401614751565b600060405180830381600087803b158015611d5357600080fd5b505af1158015611d67573d6000803e3d6000fd5b505050505b600260009054906101000a90046001600160a01b03166001600160a01b031663153283458d6040016020810190611da39190613fcf565b6040516001600160e01b031960e084901b1681526001600160a01b039091166004820152602481018c905260448101849052606401600060405180830381600087803b158015611df257600080fd5b505af1158015611e06573d6000803e3d6000fd5b50505050611e25898d803603810190611e1f9190614457565b8361351d565b50505050505050509392505050565b6000546001600160a01b03163314611e8e5760405162461bcd60e51b815260206004820181905260248201527f4f776e61626c653a2063616c6c6572206973206e6f7420746865206f776e65726044820152606401610636565b600480546001600160a01b0319166001600160a01b0383169081179091556040519081527fbf5f580614969fb819b8af01f7cc62fe0e0146feaf98d7aee42e76bb0bee8e6390602001610689565b6060810151805160209182015160408085015160808601518051908601518688015188519451600098611f5198979691016001600160a01b03978816815260208101969096529386166040860152919094166060840152608083019390935260a082019290925260c081019190915260e00190565b604051602081830303815290604052805190602001209050919050565b611f7783611206565b611fc35760405162461bcd60e51b815260206004820152601360248201527f4d56313a3a66696c6c4f726465723a206e6f74000000000000000000000000006044820152606401610636565b600254604051632bbc239560e11b8152600481018590526000916001600160a01b031690635778472a906024016101206040518083038186803b15801561200957600080fd5b505afa15801561201d573d6000803e3d6000fd5b505050506040513d601f19601f8201168201806040525081019061204191906144be565b60015481516040516318459c8560e01b81529293506000926001600160a01b03909216916318459c859161207b9160040190815260200190565b60206040518083038186803b15801561209357600080fd5b505afa1580156120a7573d6000803e3d6000fd5b505050506040513d601f19601f820116820180604052508101906120cb9190613fec565b90506000806000806000856001600160a01b031663d5b7008b8b8b8b6040518463ffffffff1660e01b815260040161210593929190614629565b60a060405180830381600087803b15801561211f57600080fd5b505af1158015612133573d6000803e3d6000fd5b505050506040513d601f19601f820116820180604052508101906121579190614532565b94509450945094509450816001600160a01b0316336001600160a01b0316146121c25760405162461bcd60e51b815260206004820152601c60248201527f4d56313a3a66696c6c4f726465723a20756e617574686f72697a6564000000006044820152606401610636565b600187608001516040015160048111156121de576121de6148c4565b141561227057843410156122345760405162461bcd60e51b815260206004820152601c60248201527f4d56313a3a66696c6c4f726465723a20696e73756666696369656e74000000006044820152606401610636565b6002546040516001600160a01b039091169086156108fc029087906000818181858888f1935050505015801561226e573d6000803e3d6000fd5b505b60008061227f8c8888886135ff565b604080518a81526020810184905290810189905260608101829052851515608082015291935091506001600160a01b038616908d907fcb0008fdd46addf7aad7ee42886d42b47361bac76d14098dc050fbb85b5e48209060a00160405180910390a36003546001600160a01b0316156123b2576003546040805160e0810182528e8152602081018a8152818301868152606083018b8152608084018781526001600160a01b038c811660a087019081528b151560c088019081529751630eea8e5360e01b8152965160048801529451602487015292516044860152905160648501525160848401529051811660a48301529151151560c4820152911690630eea8e539060e401600060405180830381600087803b15801561239f57600080fd5b505af19250505080156123b0575060015b505b821561241757600254604051630da0df5b60e41b8152600481018e90526001600160a01b039091169063da0df5b090602401600060405180830381600087803b1580156123fe57600080fd5b505af1158015612412573d6000803e3d6000fd5b505050505b505050505050505050505050565b6000546001600160a01b0316331461247f5760405162461bcd60e51b815260206004820181905260248201527f4f776e61626c653a2063616c6c6572206973206e6f7420746865206f776e65726044820152606401610636565b6124896000613778565b565b61249483611206565b6124e05760405162461bcd60e51b815260206004820152601560248201527f4d56313a3a63616e63656c4f726465723a206e6f7400000000000000000000006044820152606401610636565b600254604051632bbc239560e11b8152600481018590526000916001600160a01b031690635778472a906024016101206040518083038186803b15801561252657600080fd5b505afa15801561253a573d6000803e3d6000fd5b505050506040513d601f19601f8201168201806040525081019061255e91906144be565b60408101519091506001600160a01b031633146125bd5760405162461bcd60e51b815260206004820152601e60248201527f4d56313a3a63616e63656c4f726465723a20756e617574686f72697a656400006044820152606401610636565b60015481516040516318459c8560e01b815260048101919091526000916001600160a01b0316906318459c859060240160206040518083038186803b15801561260557600080fd5b505afa158015612619573d6000803e3d6000fd5b505050506040513d601f19601f8201168201806040525081019061263d9190613fec565b90506000816001600160a01b031663302bacf38787876040518463ffffffff1660e01b815260040161267193929190614629565b602060405180830381600087803b15801561268b57600080fd5b505af115801561269f573d6000803e3d6000fd5b505050506040513d601f19601f820116820180604052508101906126c39190614519565b60025460608501516040808701519051635d61f5af60e01b81529394506001600160a01b0390921692635d61f5af92612704929185919087906004016147a1565b600060405180830381600087803b15801561271e57600080fd5b505af1158015612732573d6000803e3d6000fd5b5050600254604051630da0df5b60e41b8152600481018a90526001600160a01b03909116925063da0df5b09150602401600060405180830381600087803b15801561277c57600080fd5b505af1158015612790573d6000803e3d6000fd5b50505050857f33c5b2d2e4db5826ca5ff87cc934fddfc7ff1714b18290e32faffa4f5619b879826040516127c691815260200190565b60405180910390a2505050505050565b6000806127e585870187614227565b915091506127f282611206565b61283e5760405162461bcd60e51b815260206004820152601360248201527f4d56313a3a66696c6c4f726465723a206e6f74000000000000000000000000006044820152606401610636565b600254604051632bbc239560e11b8152600481018490526000916001600160a01b031690635778472a906024016101206040518083038186803b15801561288457600080fd5b505afa158015612898573d6000803e3d6000fd5b505050506040513d601f19601f820116820180604052508101906128bc91906144be565b60015481516040516318459c8560e01b81529293506000926001600160a01b03909216916318459c85916128f69160040190815260200190565b60206040518083038186803b15801561290e57600080fd5b505afa158015612922573d6000803e3d6000fd5b505050506040513d601f19601f820116820180604052508101906129469190613fec565b90506000806000806000856001600160a01b031663d5b7008b8a8a6040518363ffffffff1660e01b815260040161297e92919061465f565b60a060405180830381600087803b15801561299857600080fd5b505af11580156129ac573d6000803e3d6000fd5b505050506040513d601f19601f820116820180604052508101906129d09190614532565b94509450945094509450816001600160a01b0316612a366129fa8f8f604051610700929190614619565b8d8d8080601f01602080910402602001604051908101604052809392919081815260200183838082843760009201919091525061347992505050565b6001600160a01b031614612a8c5760405162461bcd60e51b815260206004820152601c60248201527f4d56313a3a66696c6c4f726465723a20756e617574686f72697a6564000000006044820152606401610636565b60018760800151604001516004811115612aa857612aa86148c4565b1415612b3a5784341015612afe5760405162461bcd60e51b815260206004820152601c60248201527f4d56313a3a66696c6c4f726465723a20696e73756666696369656e74000000006044820152606401610636565b6002546040516001600160a01b039091169086156108fc029087906000818181858888f19350505050158015612b38573d6000803e3d6000fd5b505b600080612b498b8888886135ff565b604080518a81526020810184905290810189905260608101829052851515608082015291935091506001600160a01b038616908c907fcb0008fdd46addf7aad7ee42886d42b47361bac76d14098dc050fbb85b5e48209060a00160405180910390a36003546001600160a01b031615612c7c576003546040805160e0810182528d8152602081018a8152818301868152606083018b8152608084018781526001600160a01b038c811660a087019081528b151560c088019081529751630eea8e5360e01b8152965160048801529451602487015292516044860152905160648501525160848401529051811660a48301529151151560c4820152911690630eea8e539060e401600060405180830381600087803b158015612c6957600080fd5b505af1925050508015612c7a575060015b505b8215612ce157600254604051630da0df5b60e41b8152600481018d90526001600160a01b039091169063da0df5b090602401600060405180830381600087803b158015612cc857600080fd5b505af1158015612cdc573d6000803e3d6000fd5b505050505b505050505050505050505050505050565b6000546001600160a01b03163314612d4c5760405162461bcd60e51b815260206004820181905260248201527f4f776e61626c653a2063616c6c6572206973206e6f7420746865206f776e65726044820152606401610636565b600580546001600160a01b0319166001600160a01b0383169081179091556040519081527f0c50897633667acdce5d3e9eb08db0920eecff14f248277c32f63a59f58c9df090602001610689565b6000546001600160a01b03163314612df45760405162461bcd60e51b815260206004820181905260248201527f4f776e61626c653a2063616c6c6572206973206e6f7420746865206f776e65726044820152606401610636565b600680546001600160a01b0319166001600160a01b0383169081179091556040519081527fbfa09f9599e6d50c954e9c3d758f909c844ae7c03a90314249a708f5dcc3c04790602001610689565b6000546001600160a01b03163314612e9c5760405162461bcd60e51b815260206004820181905260248201527f4f776e61626c653a2063616c6c6572206973206e6f7420746865206f776e65726044820152606401610636565b6040516001600160a01b038216904780156108fc02916000818181858888f19350505050158015612ed1573d6000803e3d6000fd5b5050565b6000546001600160a01b03163314612f2f5760405162461bcd60e51b815260206004820181905260248201527f4f776e61626c653a2063616c6c6572206973206e6f7420746865206f776e65726044820152606401610636565b6001600160a01b038116612fab5760405162461bcd60e51b815260206004820152602660248201527f4f776e61626c653a206e6577206f776e657220697320746865207a65726f206160448201527f64647265737300000000000000000000000000000000000000000000000000006064820152608401610636565b612fb481613778565b50565b600080612fc685870187614227565b91509150612fd382611206565b61301f5760405162461bcd60e51b815260206004820152601560248201527f4d56313a3a63616e63656c4f726465723a206e6f7400000000000000000000006044820152606401610636565b600254604051632bbc239560e11b8152600481018490526000916001600160a01b031690635778472a906024016101206040518083038186803b15801561306557600080fd5b505afa158015613079573d6000803e3d6000fd5b505050506040513d601f19601f8201168201806040525081019061309d91906144be565b905080604001516001600160a01b03166130c361070d8989604051610700929190614619565b6001600160a01b0316146131195760405162461bcd60e51b815260206004820152601e60248201527f4d56313a3a63616e63656c4f726465723a20756e617574686f72697a656400006044820152606401610636565b60015481516040516318459c8560e01b815260048101919091526000916001600160a01b0316906318459c859060240160206040518083038186803b15801561316157600080fd5b505afa158015613175573d6000803e3d6000fd5b505050506040513d601f19601f820116820180604052508101906131999190613fec565b90506000816001600160a01b031663302bacf386866040518363ffffffff1660e01b81526004016131cb92919061465f565b602060405180830381600087803b1580156131e557600080fd5b505af11580156131f9573d6000803e3d6000fd5b505050506040513d601f19601f8201168201806040525081019061321d9190614519565b60025460608501516040808701519051635d61f5af60e01b81529394506001600160a01b0390921692635d61f5af9261325e929185919087906004016147a1565b600060405180830381600087803b15801561327857600080fd5b505af115801561328c573d6000803e3d6000fd5b5050600254604051630da0df5b60e41b8152600481018990526001600160a01b03909116925063da0df5b09150602401600060405180830381600087803b1580156132d657600080fd5b505af11580156132ea573d6000803e3d6000fd5b50505050847f33c5b2d2e4db5826ca5ff87cc934fddfc7ff1714b18290e32faffa4f5619b8798260405161332091815260200190565b60405180910390a2505050505050505050565b61333b613d90565b60606000806000806000806000806000808c806020019051810190613360919061426e565b99509950995099509950995099509950995099506040518060a001604052808b81526020018a8152602001896001600160a01b0316815260200160405180606001604052808a6001600160a01b031681526020018981526020018860048111156133cc576133cc6148c4565b60048111156133dd576133dd6148c4565b81525081526020016040518060600160405280876001600160a01b03168152602001868152602001856004811115613417576134176148c4565b6004811115613428576134286148c4565b905290529d909c509a5050505050505050505050565b6040517f19457468657265756d205369676e6564204d6573736167653a0a3332000000006020820152603c8101829052600090605c01611f51565b60008151604114156134ad5760208201516040830151606084015160001a6134a3868285856137c8565b93505050506105da565b8151604014156134d557602082015160408301516134cc858383613973565b925050506105da565b60405162461bcd60e51b815260206004820152601f60248201527f45434453413a20696e76616c6964207369676e6174757265206c656e677468006044820152606401610636565b8160600151600001516001600160a01b031682604001516001600160a01b0316847fcf8f883073ef7ffa5b6c2e61be62fa53ed42503d6b8d6ea2b15fc77573cfb1e18560600151602001518660600151604001516004811115613582576135826148c4565b60808801518051602082015160409092015190919060048111156135a8576135a86148c4565b8a516020808d015160408051988952918801969096526001600160a01b03909416938601939093526060850191909152608084015260a083015260c082015260e081018690526101000160405180910390a4505050565b600254604051632bbc239560e11b815260048101869052600091829182916001600160a01b031690635778472a906024016101206040518083038186803b15801561364957600080fd5b505afa15801561365d573d6000803e3d6000fd5b505050506040513d601f19601f8201168201806040525081019061368191906144be565b6006546060820151608083015160405163cf2e2fed60e01b81529394506000936001600160a01b039093169263cf2e2fed926136c19290916004016147af565b60806040518083038186803b1580156136d957600080fd5b505afa1580156136ed573d6000803e3d6000fd5b505050506040513d601f19601f820116820180604052508101906137119190614169565b5050915050600080821561374a5761373b846080015185606001518987604001518d8d60006139b6565b909650945061376f9350505050565b6137668460600151856080015186604001518a8c8e60016139b6565b96509450505050505b94509492505050565b600080546001600160a01b038381166001600160a01b0319831681178455604051919092169283917f8be0079c531659141344cd1fd0a4f28419497f9722a3daafe3b4186f6b6457e09190a35050565b60007f7fffffffffffffffffffffffffffffff5d576e7357a4501ddfe92f46681b20a08211156138455760405162461bcd60e51b815260206004820152602260248201527f45434453413a20696e76616c6964207369676e6174757265202773272076616c604482015261756560f01b6064820152608401610636565b8360ff16601b148061385a57508360ff16601c145b6138b15760405162461bcd60e51b815260206004820152602260248201527f45434453413a20696e76616c6964207369676e6174757265202776272076616c604482015261756560f01b6064820152608401610636565b6040805160008082526020820180845288905260ff871692820192909252606081018590526080810184905260019060a0016020604051602081039080840390855afa158015613905573d6000803e3d6000fd5b5050604051601f1901519150506001600160a01b0381166139685760405162461bcd60e51b815260206004820152601860248201527f45434453413a20696e76616c6964207369676e617475726500000000000000006044820152606401610636565b90505b949350505050565b60007f7fffffffffffffffffffffffffffffffffffffffffffffffffffffffffffffff821660ff83901c601b016139ac868287856137c8565b9695505050505050565b6000806000836139c657876139d3565b6002546001600160a01b03165b905060006139e38b8b848a613b1e565b905060006139f38c8c858b613c73565b9050600081613a02848b61486f565b613a0c919061486f565b90508015613a8e57600260009054906101000a90046001600160a01b03166001600160a01b0316635d61f5af8e868d856040518563ffffffff1660e01b8152600401613a5b94939291906147a1565b600060405180830381600087803b158015613a7557600080fd5b505af1158015613a89573d6000803e3d6000fd5b505050505b6002546001600160a01b0316635d61f5af8d89613ab6576002546001600160a01b0316613ab8565b8c5b8e8c6040518563ffffffff1660e01b8152600401613ad994939291906147a1565b600060405180830381600087803b158015613af357600080fd5b505af1158015613b07573d6000803e3d6000fd5b50929f999e50989c50505050505050505050505050565b6004546000906001600160a01b0316613b395750600061396b565b600480548651865160208801516040517f9eb65c7f0000000000000000000000000000000000000000000000000000000081526001600160a01b0393841695810195909552908216602485015260448401526064830185905260009283929190911690639eb65c7f906084016040805180830381600087803b158015613bbe57600080fd5b505af1158015613bd2573d6000803e3d6000fd5b505050506040513d601f19601f82011682018060405250810190613bf69190614120565b909250905080156139ac57600254604051635d61f5af60e01b81526001600160a01b0390911690635d61f5af90613c37908a908990879087906004016147a1565b600060405180830381600087803b158015613c5157600080fd5b505af1158015613c65573d6000803e3d6000fd5b505050509695505050505050565b825160208401516040517f2a55205a0000000000000000000000000000000000000000000000000000000081526004810191909152602481018390526000916001600160a01b031690632a55205a90604401604080518083038186803b158015613cdc57600080fd5b505afa925050508015613d0c575060408051601f3d908101601f19168201909252613d0991810190614120565b60015b613d185750600061396b565b8015613d8757600254604051635d61f5af60e01b81526001600160a01b0390911690635d61f5af90613d54908a908990879087906004016147a1565b600060405180830381600087803b158015613d6e57600080fd5b505af1158015613d82573d6000803e3d6000fd5b505050505b915061396b9050565b6040518060a00160405280600080191681526020016000815260200160006001600160a01b03168152602001613ddd60408051606081018252600080825260208201819052909182015290565b8152602001613e0360408051606081018252600080825260208201819052909182015290565b905290565b600082601f830112613e1957600080fd5b8135602067ffffffffffffffff821115613e3557613e356148da565b8160051b613e44828201614816565b838152828101908684018388018501891015613e5f57600080fd5b600093505b85841015613e82578035835260019390930192918401918401613e64565b50979650505050505050565b80518015158114613e9e57600080fd5b919050565b60008083601f840112613eb557600080fd5b50813567ffffffffffffffff811115613ecd57600080fd5b602083019150836020828501011115613ee557600080fd5b9250929050565b600082601f830112613efd57600080fd5b8135613f10613f0b82614847565b614816565b818152846020838601011115613f2557600080fd5b816020850160208301376000918101602001919091529392505050565b600060608284031215613f5457600080fd5b613f5c6147ca565b90508135613f69816148f0565b8152602082810135908201526040820135613f8381614905565b604082015292915050565b600060608284031215613fa057600080fd5b613fa86147ca565b90508151613fb5816148f0565b8152602082810151908201526040820151613f8381614905565b600060208284031215613fe157600080fd5b81356112a7816148f0565b600060208284031215613ffe57600080fd5b81516112a7816148f0565b600080600080600060a0868803121561402157600080fd5b853561402c816148f0565b9450602086013561403c816148f0565b9350604086013567ffffffffffffffff8082111561405957600080fd5b61406589838a01613e08565b9450606088013591508082111561407b57600080fd5b61408789838a01613e08565b9350608088013591508082111561409d57600080fd5b506140aa88828901613eec565b9150509295509295909350565b600080600080600060a086880312156140cf57600080fd5b85356140da816148f0565b945060208601356140ea816148f0565b93506040860135925060608601359150608086013567ffffffffffffffff81111561411457600080fd5b6140aa88828901613eec565b6000806040838503121561413357600080fd5b825161413e816148f0565b6020939093015192949293505050565b60006020828403121561416057600080fd5b6112a782613e8e565b6000806000806080858703121561417f57600080fd5b61418885613e8e565b935061419660208601613e8e565b925060408501516141a681614905565b60608601519092506141b781614905565b939692955090935050565b6000602082840312156141d457600080fd5b5035919050565b6000806000604084860312156141f057600080fd5b83359250602084013567ffffffffffffffff81111561420e57600080fd5b61421a86828701613ea3565b9497909650939450505050565b6000806040838503121561423a57600080fd5b82359150602083013567ffffffffffffffff81111561425857600080fd5b61426485828601613eec565b9150509250929050565b6000806000806000806000806000806101408b8d03121561428e57600080fd5b8a51995060208b0151985060408b01516142a7816148f0565b60608c01519098506142b8816148f0565b8097505060808b0151955060a08b0151945060c08b01516142d8816148f0565b8094505060e08b015192506101008b015191506101208b015167ffffffffffffffff81111561430657600080fd5b8b01601f81018d1361431757600080fd5b8051614325613f0b82614847565b8181528e602083850101111561433a57600080fd5b61434b826020830160208601614894565b8093505050509295989b9194979a5092959850565b60006020828403121561437257600080fd5b81356001600160e01b0319811681146112a757600080fd5b600080600080604085870312156143a057600080fd5b843567ffffffffffffffff808211156143b857600080fd5b6143c488838901613ea3565b909650945060208701359150808211156143dd57600080fd5b506143ea87828801613ea3565b95989497509550505050565b60006020828403121561440857600080fd5b81356112a781614905565b600080600083850361014081121561442a57600080fd5b6101208082121561443a57600080fd5b859450840135905067ffffffffffffffff81111561420e57600080fd5b6000610120828403121561446a57600080fd5b6144726147f3565b8235815260208301356020820152604083013561448e816148f0565b60408201526144a08460608501613f42565b60608201526144b28460c08501613f42565b60808201529392505050565b600061012082840312156144d157600080fd5b6144d96147f3565b825181526020830151602082015260408301516144f5816148f0565b60408201526145078460608501613f8e565b60608201526144b28460c08501613f8e565b60006020828403121561452b57600080fd5b5051919050565b600080600080600060a0868803121561454a57600080fd5b85519450602086015193506040860151614563816148f0565b6060870151909350614574816148f0565b915061458260808701613e8e565b90509295509295909350565b600581106145ac57634e487b7160e01b600052602160045260246000fd5b9052565b80356145bb816148f0565b6001600160a01b031682526020818101359083015260408101356145de81614905565b6145eb604084018261458e565b505050565b6001600160a01b0381511682526020810151602083015260408101516145eb604084018261458e565b8183823760009101908152919050565b83815260406020820152816040820152818360608301376000818301606090810191909152601f909201601f1916010192915050565b8281526040602082015260008251806040840152614684816060850160208701614894565b601f01601f1916919091016060019392505050565b600061014082019050838252823560208301526020830135604083015260408301356146c4816148f0565b6001600160a01b0381166060840152506146e460808301606085016145b0565b6112a760e0830160c085016145b0565b60006101408201905083825282516020830152602083015160408301526001600160a01b036040840151166060830152606083015161473660808401826145f0565b50608083015161474960e08401826145f0565b509392505050565b60c0810161475f82876145b0565b6001600160a01b03948516606083015292909316608084015260a090920191909152919050565b60c0810161479482856145b0565b6112a760608301846145b0565b60c0810161475f82876145f0565b60c081016147bd82856145f0565b6112a760608301846145f0565b6040516060810167ffffffffffffffff811182821017156147ed576147ed6148da565b60405290565b60405160a0810167ffffffffffffffff811182821017156147ed576147ed6148da565b604051601f8201601f1916810167ffffffffffffffff8111828210171561483f5761483f6148da565b604052919050565b600067ffffffffffffffff821115614861576148616148da565b50601f01601f191660200190565b60008282101561488f57634e487b7160e01b600052601160045260246000fd5b500390565b60005b838110156148af578181015183820152602001614897565b838111156148be576000848401525b50505050565b634e487b7160e01b600052602160045260246000fd5b634e487b7160e01b600052604160045260246000fd5b6001600160a01b0381168114612fb457600080fd5b60058110612fb457600080fdfea264697066735822122089dc9b744a0e28ee66359d09225f62824eea3516e3827cfaa8c546e28f2891d664736f6c63430008070033",
  "linkReferences": {},
  "deployedLinkReferences": {}
}