{
  "_format": "hh-sol-artifact-1",
  "contractName": "PaymentTokenManager",
  "sourceName": "contracts/PaymentTokenManager.sol",
  "abi": [
    {
      "inputs": [
        {
          "internalType": "address",
          "name": "_governor",
          "type": "address"
        }
      ],
      "stateMutability": "nonpayable",
      "type": "constructor"
    },
    {
      "anonymous": false,
      "inputs": [
        {
          "indexed": false,
          "internalType": "uint256",
          "name": "assetType",
          "type": "uint256"
        },
        {
          "indexed": false,
          "internalType": "address",
          "name": "assetAddress",
          "type": "address"
        },
        {
          "indexed": false,
          "internalType": "bool",
          "name": "enabled",
          "type": "bool"
        }
      ],
      "name": "DefaultPaymentTokenSet",
      "type": "event"
    },
    {
      "anonymous": false,
      "inputs": [
        {
          "indexed": true,
          "internalType": "address",
          "name": "previousOwner",
          "type": "address"
        },
        {
          "indexed": true,
          "internalType": "address",
          "name": "newOwner",
          "type": "address"
        }
      ],
      "name": "OwnershipTransferred",
      "type": "event"
    },
    {
      "anonymous": false,
      "inputs": [
        {
          "indexed": false,
          "internalType": "address",
          "name": "sellAssetAddress",
          "type": "address"
        },
        {
          "indexed": false,
          "internalType": "address",
          "name": "buyAssetAddress",
          "type": "address"
        },
        {
          "indexed": false,
          "internalType": "uint256",
          "name": "assetType",
          "type": "uint256"
        },
        {
          "indexed": false,
          "internalType": "address",
          "name": "assetAddress",
          "type": "address"
        },
        {
          "indexed": false,
          "internalType": "bool",
          "name": "enabled",
          "type": "bool"
        }
      ],
      "name": "RegisteredPaymentTokenSet",
      "type": "event"
    },
    {
      "inputs": [
        {
          "components": [
            {
              "internalType": "address",
              "name": "addr",
              "type": "address"
            },
            {
              "internalType": "uint256",
              "name": "id",
              "type": "uint256"
            },
            {
              "internalType": "enum DomainV1.AssetType",
              "name": "assetType",
              "type": "uint8"
            }
          ],
          "internalType": "struct DomainV1.Asset",
          "name": "_sellAsset",
          "type": "tuple"
        },
        {
          "components": [
            {
              "internalType": "address",
              "name": "addr",
              "type": "address"
            },
            {
              "internalType": "uint256",
              "name": "id",
              "type": "uint256"
            },
            {
              "internalType": "enum DomainV1.AssetType",
              "name": "assetType",
              "type": "uint8"
            }
          ],
          "internalType": "struct DomainV1.Asset",
          "name": "_buyAsset",
          "type": "tuple"
        }
      ],
      "name": "getPaymentToken",
      "outputs": [
        {
          "internalType": "bool",
          "name": "",
          "type": "bool"
        },
        {
          "internalType": "bool",
          "name": "",
          "type": "bool"
        },
        {
          "internalType": "enum DomainV1.AssetType",
          "name": "",
          "type": "uint8"
        },
        {
          "internalType": "enum DomainV1.AssetType",
          "name": "",
          "type": "uint8"
        }
      ],
      "stateMutability": "view",
      "type": "function"
    },
    {
      "inputs": [],
      "name": "owner",
      "outputs": [
        {
          "internalType": "address",
          "name": "",
          "type": "address"
        }
      ],
      "stateMutability": "view",
      "type": "function"
    },
    {
      "inputs": [
        {
          "internalType": "address",
          "name": "sellAssetAddress",
          "type": "address"
        },
        {
          "internalType": "address",
          "name": "buyAssetAddress",
          "type": "address"
        },
        {
          "internalType": "enum DomainV1.AssetType",
          "name": "paymentAssetType",
          "type": "uint8"
        },
        {
          "internalType": "address",
          "name": "paymentAssetAddress",
          "type": "address"
        },
        {
          "internalType": "bool",
          "name": "enabled",
          "type": "bool"
        }
      ],
      "name": "registerPaymentToken",
      "outputs": [],
      "stateMutability": "nonpayable",
      "type": "function"
    },
    {
      "inputs": [],
      "name": "renounceOwnership",
      "outputs": [],
      "stateMutability": "nonpayable",
      "type": "function"
    },
    {
      "inputs": [
        {
          "internalType": "enum DomainV1.AssetType",
          "name": "assetType",
          "type": "uint8"
        },
        {
          "internalType": "address",
          "name": "assetAddress",
          "type": "address"
        },
        {
          "internalType": "bool",
          "name": "enabled",
          "type": "bool"
        }
      ],
      "name": "setDefaultPaymentToken",
      "outputs": [],
      "stateMutability": "nonpayable",
      "type": "function"
    },
    {
      "inputs": [
        {
          "internalType": "address",
          "name": "newOwner",
          "type": "address"
        }
      ],
      "name": "transferOwnership",
      "outputs": [],
      "stateMutability": "nonpayable",
      "type": "function"
    }
  ],
  "bytecode": "0x608060405234801561001057600080fd5b50604051610b4d380380610b4d83398101604081905261002f91610167565b61003833610047565b61004181610097565b50610197565b600080546001600160a01b038381166001600160a01b0319831681178455604051919092169283917f8be0079c531659141344cd1fd0a4f28419497f9722a3daafe3b4186f6b6457e09190a35050565b6000546001600160a01b031633146100f65760405162461bcd60e51b815260206004820181905260248201527f4f776e61626c653a2063616c6c6572206973206e6f7420746865206f776e657260448201526064015b60405180910390fd5b6001600160a01b03811661015b5760405162461bcd60e51b815260206004820152602660248201527f4f776e61626c653a206e6577206f776e657220697320746865207a65726f206160448201526564647265737360d01b60648201526084016100ed565b61016481610047565b50565b60006020828403121561017957600080fd5b81516001600160a01b038116811461019057600080fd5b9392505050565b6109a7806101a66000396000f3fe608060405234801561001057600080fd5b50600436106100725760003560e01c8063cf2e2fed11610050578063cf2e2fed146100b4578063f2e80843146100d7578063f2fde38b146100ea57600080fd5b8063715018a6146100775780638da5cb5b146100815780639e0b6b0d146100a1575b600080fd5b61007f6100fd565b005b6000546040516001600160a01b0390911681526020015b60405180910390f35b61007f6100af366004610828565b610168565b6100c76100c23660046108d0565b6102f6565b6040516100989493929190610927565b61007f6100e536600461088d565b61052b565b61007f6100f8366004610806565b610669565b6000546001600160a01b0316331461015c5760405162461bcd60e51b815260206004820181905260248201527f4f776e61626c653a2063616c6c6572206973206e6f7420746865206f776e657260448201526064015b60405180910390fd5b610166600061074b565b565b6000546001600160a01b031633146101c25760405162461bcd60e51b815260206004820181905260248201527f4f776e61626c653a2063616c6c6572206973206e6f7420746865206f776e65726044820152606401610153565b6001600160a01b038086166000908152600260209081526040808320938816835292905220805484919061ff0019166101008360048111156102065761020661095b565b02179055506001600160a01b03858116600090815260026020908152604080832088851684529091529020805475ffffffffffffffffffffffffffffffffffffffff00ff19168315157fffffffffffffffffffff0000000000000000000000000000000000000000ffff161762010000928516929092029190911790557f4aad03dce16d085603a36621aa1b9c4d20c956751631753eac63d22a0929ec6485858560048111156102b8576102b861095b565b604080516001600160a01b03948516815292841660208401528201529084166060820152821515608082015260a00160405180910390a15050505050565b60008080808060028161030c60208a018a610806565b6001600160a01b0316815260208082019290925260400160009081209161033590890189610806565b6001600160a01b031681526020808201929092526040908101600020815160608101909252805460ff8082161515845292939192918401916101009091041660048111156103855761038561095b565b60048111156103965761039661095b565b815290546201000090046001600160a01b0316602090910152805190915060009081908190819080156103ea57506103d160208c018c610806565b6001600160a01b031685604001516001600160a01b0316145b156103ff57600193508460200151915061046b565b6001600061041060208e018e610806565b6001600160a01b0316815260208101919091526040016000205460ff161561046b576001935083600061044660208e018e610806565b6001600160a01b03168152602081019190915260400160002054610100900460ff1691505b8451801561049a575061048160208b018b610806565b6001600160a01b031685604001516001600160a01b0316145b156104ae575060208401516001925061051a565b600160006104bf60208d018d610806565b6001600160a01b0316815260208101919091526040016000205460ff161561051a57600192508260006104f560208d018d610806565b6001600160a01b03168152602081019190915260400160002054610100900460ff1690505b929a91995097509095509350505050565b6000546001600160a01b031633146105855760405162461bcd60e51b815260206004820181905260248201527f4f776e61626c653a2063616c6c6572206973206e6f7420746865206f776e65726044820152606401610153565b6001600160a01b0382166000908152600160205260409020805484919061ff0019166101008360048111156105bc576105bc61095b565b02179055506001600160a01b0382166000818152600160205260409020805475ffffffffffffffffffffffffffffffffffffffff00ff19166201000090920260ff1916919091178215151790557f1c85aa37ff3e236ea5d19bce51b3b2b37418e932c0fe32a3f1e9351e440b4dc183600481111561063c5761063c61095b565b604080519182526001600160a01b03851660208301528315159082015260600160405180910390a1505050565b6000546001600160a01b031633146106c35760405162461bcd60e51b815260206004820181905260248201527f4f776e61626c653a2063616c6c6572206973206e6f7420746865206f776e65726044820152606401610153565b6001600160a01b03811661073f5760405162461bcd60e51b815260206004820152602660248201527f4f776e61626c653a206e6577206f776e657220697320746865207a65726f206160448201527f64647265737300000000000000000000000000000000000000000000000000006064820152608401610153565b6107488161074b565b50565b600080546001600160a01b038381167fffffffffffffffffffffffff0000000000000000000000000000000000000000831681178455604051919092169283917f8be0079c531659141344cd1fd0a4f28419497f9722a3daafe3b4186f6b6457e09190a35050565b80356001600160a01b03811681146107ca57600080fd5b919050565b803580151581146107ca57600080fd5b8035600581106107ca57600080fd5b60006060828403121561080057600080fd5b50919050565b60006020828403121561081857600080fd5b610821826107b3565b9392505050565b600080600080600060a0868803121561084057600080fd5b610849866107b3565b9450610857602087016107b3565b9350610865604087016107df565b9250610873606087016107b3565b9150610881608087016107cf565b90509295509295909350565b6000806000606084860312156108a257600080fd5b6108ab846107df565b92506108b9602085016107b3565b91506108c7604085016107cf565b90509250925092565b60008060c083850312156108e357600080fd5b6108ed84846107ee565b91506108fc84606085016107ee565b90509250929050565b6005811061092357634e487b7160e01b600052602160045260246000fd5b9052565b84151581528315156020820152608081016109456040830185610905565b6109526060830184610905565b95945050505050565b634e487b7160e01b600052602160045260246000fdfea2646970667358221220cf2de8ea18c822a46064108bf3c5a1840d508bfa6c56deb00f2bedb9c7f75ee964736f6c63430008070033",
  "linkReferences": {},
  "deployedLinkReferences": {}
}