{
  "_format": "hh-sol-artifact-1",
  "contractName": "RecognizedCollections",
  "sourceName": "contracts/RecognizedCollections.sol",
  "abi": [
    {
      "inputs": [
        {
          "internalType": "address",
          "name": "_governor",
          "type": "address"
        }
      ],
      "stateMutability": "nonpayable",
      "type": "constructor"
    },
    {
      "anonymous": false,
      "inputs": [
        {
          "indexed": true,
          "internalType": "address",
          "name": "collection",
          "type": "address"
        },
        {
          "indexed": true,
          "internalType": "uint256",
          "name": "assetType",
          "type": "uint256"
        },
        {
          "indexed": true,
          "internalType": "bool",
          "name": "isAdded",
          "type": "bool"
        }
      ],
      "name": "CollectionChanged",
      "type": "event"
    },
    {
      "anonymous": false,
      "inputs": [
        {
          "indexed": true,
          "internalType": "address",
          "name": "previousOwner",
          "type": "address"
        },
        {
          "indexed": true,
          "internalType": "address",
          "name": "newOwner",
          "type": "address"
        }
      ],
      "name": "OwnershipTransferred",
      "type": "event"
    },
    {
      "inputs": [
        {
          "internalType": "address",
          "name": "_address",
          "type": "address"
        },
        {
          "internalType": "enum DomainV1.AssetType",
          "name": "_type",
          "type": "uint8"
        }
      ],
      "name": "add",
      "outputs": [],
      "stateMutability": "nonpayable",
      "type": "function"
    },
    {
      "inputs": [
        {
          "internalType": "bytes[]",
          "name": "calls",
          "type": "bytes[]"
        },
        {
          "internalType": "bool",
          "name": "revertOnFail",
          "type": "bool"
        }
      ],
      "name": "batch",
      "outputs": [
        {
          "internalType": "bool[]",
          "name": "successes",
          "type": "bool[]"
        },
        {
          "internalType": "bytes[]",
          "name": "results",
          "type": "bytes[]"
        }
      ],
      "stateMutability": "payable",
      "type": "function"
    },
    {
      "inputs": [
        {
          "internalType": "address",
          "name": "",
          "type": "address"
        }
      ],
      "name": "collection",
      "outputs": [
        {
          "internalType": "enum DomainV1.AssetType",
          "name": "assetType",
          "type": "uint8"
        },
        {
          "internalType": "uint256",
          "name": "listIndex",
          "type": "uint256"
        }
      ],
      "stateMutability": "view",
      "type": "function"
    },
    {
      "inputs": [
        {
          "internalType": "uint256",
          "name": "",
          "type": "uint256"
        }
      ],
      "name": "collections",
      "outputs": [
        {
          "internalType": "address",
          "name": "",
          "type": "address"
        }
      ],
      "stateMutability": "view",
      "type": "function"
    },
    {
      "inputs": [
        {
          "internalType": "address",
          "name": "_address",
          "type": "address"
        }
      ],
      "name": "get",
      "outputs": [
        {
          "components": [
            {
              "internalType": "enum DomainV1.AssetType",
              "name": "assetType",
              "type": "uint8"
            },
            {
              "internalType": "uint256",
              "name": "listIndex",
              "type": "uint256"
            }
          ],
          "internalType": "struct RecognizedCollections.Collection",
          "name": "",
          "type": "tuple"
        }
      ],
      "stateMutability": "view",
      "type": "function"
    },
    {
      "inputs": [],
      "name": "getLength",
      "outputs": [
        {
          "internalType": "uint256",
          "name": "",
          "type": "uint256"
        }
      ],
      "stateMutability": "view",
      "type": "function"
    },
    {
      "inputs": [],
      "name": "owner",
      "outputs": [
        {
          "internalType": "address",
          "name": "",
          "type": "address"
        }
      ],
      "stateMutability": "view",
      "type": "function"
    },
    {
      "inputs": [
        {
          "internalType": "address",
          "name": "_address",
          "type": "address"
        }
      ],
      "name": "remove",
      "outputs": [],
      "stateMutability": "nonpayable",
      "type": "function"
    },
    {
      "inputs": [],
      "name": "renounceOwnership",
      "outputs": [],
      "stateMutability": "nonpayable",
      "type": "function"
    },
    {
      "inputs": [
        {
          "internalType": "address",
          "name": "_address",
          "type": "address"
        },
        {
          "internalType": "enum DomainV1.AssetType",
          "name": "_type",
          "type": "uint8"
        }
      ],
      "name": "set",
      "outputs": [],
      "stateMutability": "nonpayable",
      "type": "function"
    },
    {
      "inputs": [
        {
          "internalType": "address",
          "name": "newOwner",
          "type": "address"
        }
      ],
      "name": "transferOwnership",
      "outputs": [],
      "stateMutability": "nonpayable",
      "type": "function"
    }
  ],
  "bytecode": "0x60806040523480156200001157600080fd5b50604051620012ed380380620012ed833981016040819052620000349162000176565b6200003f3362000051565b6200004a81620000a1565b50620001a8565b600080546001600160a01b038381166001600160a01b0319831681178455604051919092169283917f8be0079c531659141344cd1fd0a4f28419497f9722a3daafe3b4186f6b6457e09190a35050565b6000546001600160a01b03163314620001015760405162461bcd60e51b815260206004820181905260248201527f4f776e61626c653a2063616c6c6572206973206e6f7420746865206f776e657260448201526064015b60405180910390fd5b6001600160a01b038116620001685760405162461bcd60e51b815260206004820152602660248201527f4f776e61626c653a206e6577206f776e657220697320746865207a65726f206160448201526564647265737360d01b6064820152608401620000f8565b620001738162000051565b50565b6000602082840312156200018957600080fd5b81516001600160a01b0381168114620001a157600080fd5b9392505050565b61113580620001b86000396000f3fe6080604052600436106100bc5760003560e01c8063c2bc2efc11610074578063e94886d21161004e578063e94886d2146101db578063f2fde38b14610223578063fdbda0ec1461024357600080fd5b8063c2bc2efc1461016d578063d2423b511461019a578063d2e94d87146101bb57600080fd5b8063715018a6116100a5578063715018a6146101035780638da5cb5b14610118578063be1c766b1461014f57600080fd5b806329092d0e146100c157806343f9acff146100e3575b600080fd5b3480156100cd57600080fd5b506100e16100dc366004610cec565b610263565b005b3480156100ef57600080fd5b506100e16100fe366004610d0e565b6104c0565b34801561010f57600080fd5b506100e161067d565b34801561012457600080fd5b506000546001600160a01b03165b6040516001600160a01b0390911681526020015b60405180910390f35b34801561015b57600080fd5b50600154604051908152602001610146565b34801561017957600080fd5b5061018d610188366004610cec565b6106e3565b6040516101469190610fc0565b6101ad6101a8366004610d49565b610757565b604051610146929190610ef8565b3480156101c757600080fd5b506100e16101d6366004610d0e565b610907565b3480156101e757600080fd5b506102156101f6366004610cec565b6002602052600090815260409020805460019091015460ff9091169082565b604051610146929190610f92565b34801561022f57600080fd5b506100e161023e366004610cec565b610b02565b34801561024f57600080fd5b5061013261025e366004610e81565b610be4565b6000546001600160a01b031633146102c25760405162461bcd60e51b815260206004820181905260248201527f4f776e61626c653a2063616c6c6572206973206e6f7420746865206f776e657260448201526064015b60405180910390fd5b6001600160a01b03811660009081526002602052604081205460ff1660038111156102ef576102ef6110a7565b141561033d5760405162461bcd60e51b815260206004820152600f60248201527f52433a3a72656d6f76653a206e6f74000000000000000000000000000000000060448201526064016102b9565b600180546000919061035090829061102f565b81548110610360576103606110d3565b60009182526020808320909101546001600160a01b0385811684526002909252604090922060019081015481549290931693508392909181106103a5576103a56110d3565b6000918252602080832091909101805473ffffffffffffffffffffffffffffffffffffffff19166001600160a01b0394851617905584831682526002905260408082206001908101549385168352912081019190915580548061040a5761040a6110bd565b600082815260208082208301600019908101805473ffffffffffffffffffffffffffffffffffffffff191690559092019092556001600160a01b038416825260029052604081205460ff166003811115610466576104666110a7565b6040516001600160a01b038516907f49b03eef95560e9f91c4b6b4e72993c8f4cf9fea63e9e2d47a5a7a43f6cc7f3490600090a4506001600160a01b03166000908152600260205260408120805460ff1916815560010155565b6000546001600160a01b0316331461051a5760405162461bcd60e51b815260206004820181905260248201527f4f776e61626c653a2063616c6c6572206973206e6f7420746865206f776e657260448201526064016102b9565b6001600160a01b03821660009081526002602052604081205460ff166003811115610547576105476110a7565b14156105955760405162461bcd60e51b815260206004820152600c60248201527f52433a3a7365743a206e6f74000000000000000000000000000000000000000060448201526064016102b9565b60008160038111156105a9576105a96110a7565b14156105f75760405162461bcd60e51b815260206004820152601060248201527f52433a3a7365743a20696e76616c69640000000000000000000000000000000060448201526064016102b9565b6001600160a01b0382166000908152600260205260409020805482919060ff1916600183600381111561062c5761062c6110a7565b02179055506001816003811115610645576106456110a7565b6040516001600160a01b038516907f49b03eef95560e9f91c4b6b4e72993c8f4cf9fea63e9e2d47a5a7a43f6cc7f3490600090a45050565b6000546001600160a01b031633146106d75760405162461bcd60e51b815260206004820181905260248201527f4f776e61626c653a2063616c6c6572206973206e6f7420746865206f776e657260448201526064016102b9565b6106e16000610c0e565b565b60408051808201909152600080825260208201526001600160a01b0382166000908152600260205260409081902081518083019092528054829060ff166003811115610731576107316110a7565b6003811115610742576107426110a7565b81526020016001820154815250509050919050565b6060808367ffffffffffffffff811115610773576107736110e9565b60405190808252806020026020018201604052801561079c578160200160208202803683370190505b5091508367ffffffffffffffff8111156107b8576107b86110e9565b6040519080825280602002602001820160405280156107eb57816020015b60608152602001906001900390816107d65790505b50905060005b848110156108fe576000803088888581811061080f5761080f6110d3565b90506020028101906108219190610fe1565b60405161082f929190610ee8565b600060405180830381855af49150503d806000811461086a576040519150601f19603f3d011682016040523d82523d6000602084013e61086f565b606091505b5091509150818061087e575085155b61088782610c6b565b906108a55760405162461bcd60e51b81526004016102b99190610fad565b50818584815181106108b9576108b96110d3565b602002602001019015159081151581525050808484815181106108de576108de6110d3565b6020026020010181905250505080806108f690611076565b9150506107f1565b50935093915050565b6000546001600160a01b031633146109615760405162461bcd60e51b815260206004820181905260248201527f4f776e61626c653a2063616c6c6572206973206e6f7420746865206f776e657260448201526064016102b9565b6001600160a01b03821660009081526002602052604081205460ff16600381111561098e5761098e6110a7565b146109db5760405162461bcd60e51b815260206004820152601060248201527f52433a3a6164643a20616c72656164790000000000000000000000000000000060448201526064016102b9565b60008160038111156109ef576109ef6110a7565b1415610a3d5760405162461bcd60e51b815260206004820152601060248201527f52433a3a6164643a20696e76616c69640000000000000000000000000000000060448201526064016102b9565b6001805480820182557fb10e2d527612073b26eecdfd717e6a320cf44b4afac2b0732d9fcbe2b7fa0cf601805473ffffffffffffffffffffffffffffffffffffffff19166001600160a01b03851690811790915560009081526002602052604090208054839260ff1990911690836003811115610abc57610abc6110a7565b021790555060018054610acf919061102f565b6001600160a01b0383166000908152600260205260409020600190810191909155816003811115610645576106456110a7565b6000546001600160a01b03163314610b5c5760405162461bcd60e51b815260206004820181905260248201527f4f776e61626c653a2063616c6c6572206973206e6f7420746865206f776e657260448201526064016102b9565b6001600160a01b038116610bd85760405162461bcd60e51b815260206004820152602660248201527f4f776e61626c653a206e6577206f776e657220697320746865207a65726f206160448201527f646472657373000000000000000000000000000000000000000000000000000060648201526084016102b9565b610be181610c0e565b50565b60018181548110610bf457600080fd5b6000918252602090912001546001600160a01b0316905081565b600080546001600160a01b0383811673ffffffffffffffffffffffffffffffffffffffff19831681178455604051919092169283917f8be0079c531659141344cd1fd0a4f28419497f9722a3daafe3b4186f6b6457e09190a35050565b6060604482511015610cb057505060408051808201909152601d81527f5472616e73616374696f6e2072657665727465642073696c656e746c79000000602082015290565b60048201915081806020019051810190610cca9190610dd4565b92915050565b80356001600160a01b0381168114610ce757600080fd5b919050565b600060208284031215610cfe57600080fd5b610d0782610cd0565b9392505050565b60008060408385031215610d2157600080fd5b610d2a83610cd0565b9150602083013560048110610d3e57600080fd5b809150509250929050565b600080600060408486031215610d5e57600080fd5b833567ffffffffffffffff80821115610d7657600080fd5b818601915086601f830112610d8a57600080fd5b813581811115610d9957600080fd5b8760208260051b8501011115610dae57600080fd5b602092830195509350508401358015158114610dc957600080fd5b809150509250925092565b600060208284031215610de657600080fd5b815167ffffffffffffffff80821115610dfe57600080fd5b818401915084601f830112610e1257600080fd5b815181811115610e2457610e246110e9565b604051601f8201601f19908116603f01168101908382118183101715610e4c57610e4c6110e9565b81604052828152876020848701011115610e6557600080fd5b610e76836020830160208801611046565b979650505050505050565b600060208284031215610e9357600080fd5b5035919050565b60008151808452610eb2816020860160208601611046565b601f01601f19169290920160200192915050565b60048110610ee457634e487b7160e01b600052602160045260246000fd5b9052565b8183823760009101908152919050565b604080825283519082018190526000906020906060840190828701845b82811015610f33578151151584529284019290840190600101610f15565b50505083810382850152845180825282820190600581901b8301840187850160005b83811015610f8357601f19868403018552610f71838351610e9a565b94870194925090860190600101610f55565b50909998505050505050505050565b60408101610fa08285610ec6565b8260208301529392505050565b602081526000610d076020830184610e9a565b6000604082019050610fd3828451610ec6565b602092830151919092015290565b6000808335601e19843603018112610ff857600080fd5b83018035915067ffffffffffffffff82111561101357600080fd5b60200191503681900382131561102857600080fd5b9250929050565b60008282101561104157611041611091565b500390565b60005b83811015611061578181015183820152602001611049565b83811115611070576000848401525b50505050565b600060001982141561108a5761108a611091565b5060010190565b634e487b7160e01b600052601160045260246000fd5b634e487b7160e01b600052602160045260246000fd5b634e487b7160e01b600052603160045260246000fd5b634e487b7160e01b600052603260045260246000fd5b634e487b7160e01b600052604160045260246000fdfea2646970667358221220c5202530dc7208655853937d9609f5ea297f08828a3157fa1af392f51a65eefc64736f6c63430008070033",
  "linkReferences": {},
  "deployedLinkReferences": {}
}