{
  "_format": "hh-sol-artifact-1",
  "contractName": "SimpleOrderStrategy",
  "sourceName": "contracts/strategies/SimpleOrderStrategy.sol",
  "abi": [
    {
      "inputs": [
        {
          "internalType": "address",
          "name": "_governor",
          "type": "address"
        },
        {
          "internalType": "address",
          "name": "_marketplace",
          "type": "address"
        },
        {
          "internalType": "uint256",
          "name": "_minimumListingTime",
          "type": "uint256"
        },
        {
          "internalType": "address",
          "name": "_previousStrategy",
          "type": "address"
        }
      ],
      "stateMutability": "nonpayable",
      "type": "constructor"
    },
    {
      "anonymous": false,
      "inputs": [
        {
          "indexed": false,
          "internalType": "address",
          "name": "newMatketplace",
          "type": "address"
        }
      ],
      "name": "MarketplaceChanged",
      "type": "event"
    },
    {
      "anonymous": false,
      "inputs": [
        {
          "indexed": true,
          "internalType": "bytes32",
          "name": "orderHash",
          "type": "bytes32"
        },
        {
          "indexed": false,
          "internalType": "address",
          "name": "from",
          "type": "address"
        }
      ],
      "name": "Migrated",
      "type": "event"
    },
    {
      "anonymous": false,
      "inputs": [
        {
          "indexed": false,
          "internalType": "uint256",
          "name": "newMinListingTime",
          "type": "uint256"
        }
      ],
      "name": "MinimumListingTimeChanged",
      "type": "event"
    },
    {
      "anonymous": false,
      "inputs": [
        {
          "indexed": true,
          "internalType": "address",
          "name": "previousOwner",
          "type": "address"
        },
        {
          "indexed": true,
          "internalType": "address",
          "name": "newOwner",
          "type": "address"
        }
      ],
      "name": "OwnershipTransferred",
      "type": "event"
    },
    {
      "anonymous": false,
      "inputs": [
        {
          "indexed": false,
          "internalType": "address",
          "name": "newPreviousStrategy",
          "type": "address"
        }
      ],
      "name": "PreviousStrategyChanged",
      "type": "event"
    },
    {
      "anonymous": false,
      "inputs": [
        {
          "indexed": true,
          "internalType": "bytes32",
          "name": "orderHash",
          "type": "bytes32"
        },
        {
          "indexed": false,
          "internalType": "uint256",
          "name": "quantity",
          "type": "uint256"
        },
        {
          "indexed": false,
          "internalType": "uint256",
          "name": "startsAt",
          "type": "uint256"
        },
        {
          "indexed": false,
          "internalType": "uint256",
          "name": "expiresAt",
          "type": "uint256"
        },
        {
          "indexed": false,
          "internalType": "uint128",
          "name": "askPerUnitNominator",
          "type": "uint128"
        },
        {
          "indexed": false,
          "internalType": "uint128",
          "name": "askPerUnitDenominator",
          "type": "uint128"
        },
        {
          "indexed": false,
          "internalType": "address",
          "name": "onlyTo",
          "type": "address"
        },
        {
          "indexed": false,
          "internalType": "bool",
          "name": "partialAllowed",
          "type": "bool"
        }
      ],
      "name": "SimpleOrderStrategyCreated",
      "type": "event"
    },
    {
      "inputs": [
        {
          "internalType": "bytes32",
          "name": "orderHash",
          "type": "bytes32"
        },
        {
          "internalType": "bytes",
          "name": "",
          "type": "bytes"
        }
      ],
      "name": "cancel",
      "outputs": [
        {
          "internalType": "uint256",
          "name": "sellerGetsBackAmount",
          "type": "uint256"
        }
      ],
      "stateMutability": "nonpayable",
      "type": "function"
    },
    {
      "inputs": [
        {
          "internalType": "bytes32",
          "name": "orderHash",
          "type": "bytes32"
        },
        {
          "internalType": "bytes",
          "name": "strategyData",
          "type": "bytes"
        }
      ],
      "name": "create",
      "outputs": [
        {
          "internalType": "uint256",
          "name": "",
          "type": "uint256"
        }
      ],
      "stateMutability": "nonpayable",
      "type": "function"
    },
    {
      "inputs": [
        {
          "internalType": "bytes",
          "name": "createData",
          "type": "bytes"
        }
      ],
      "name": "decodeCreateData",
      "outputs": [
        {
          "components": [
            {
              "internalType": "uint256",
              "name": "quantity",
              "type": "uint256"
            },
            {
              "internalType": "uint256",
              "name": "startsAt",
              "type": "uint256"
            },
            {
              "internalType": "uint256",
              "name": "expiresAt",
              "type": "uint256"
            },
            {
              "internalType": "uint128",
              "name": "askPerUnitNominator",
              "type": "uint128"
            },
            {
              "internalType": "uint128",
              "name": "askPerUnitDenominator",
              "type": "uint128"
            },
            {
              "internalType": "address",
              "name": "onlyTo",
              "type": "address"
            },
            {
              "internalType": "bool",
              "name": "partialAllowed",
              "type": "bool"
            }
          ],
          "internalType": "struct SimpleOrderStrategy.SimpleOrderStrategyData",
          "name": "",
          "type": "tuple"
        }
      ],
      "stateMutability": "pure",
      "type": "function"
    },
    {
      "inputs": [
        {
          "internalType": "bytes",
          "name": "fillData",
          "type": "bytes"
        }
      ],
      "name": "decodeFillData",
      "outputs": [
        {
          "components": [
            {
              "internalType": "address",
              "name": "buyer",
              "type": "address"
            },
            {
              "internalType": "uint256",
              "name": "quantity",
              "type": "uint256"
            }
          ],
          "internalType": "struct SimpleOrderStrategy.Fill",
          "name": "",
          "type": "tuple"
        }
      ],
      "stateMutability": "pure",
      "type": "function"
    },
    {
      "inputs": [
        {
          "internalType": "bytes32",
          "name": "orderHash",
          "type": "bytes32"
        },
        {
          "internalType": "bytes",
          "name": "fillData",
          "type": "bytes"
        }
      ],
      "name": "fill",
      "outputs": [
        {
          "internalType": "uint256",
          "name": "",
          "type": "uint256"
        },
        {
          "internalType": "uint256",
          "name": "",
          "type": "uint256"
        },
        {
          "internalType": "address",
          "name": "",
          "type": "address"
        },
        {
          "internalType": "address",
          "name": "",
          "type": "address"
        },
        {
          "internalType": "bool",
          "name": "",
          "type": "bool"
        }
      ],
      "stateMutability": "nonpayable",
      "type": "function"
    },
    {
      "inputs": [
        {
          "internalType": "bytes32",
          "name": "orderHash",
          "type": "bytes32"
        }
      ],
      "name": "getOrderStrategyData",
      "outputs": [
        {
          "components": [
            {
              "internalType": "uint256",
              "name": "quantity",
              "type": "uint256"
            },
            {
              "internalType": "uint256",
              "name": "startsAt",
              "type": "uint256"
            },
            {
              "internalType": "uint256",
              "name": "expiresAt",
              "type": "uint256"
            },
            {
              "internalType": "uint128",
              "name": "askPerUnitNominator",
              "type": "uint128"
            },
            {
              "internalType": "uint128",
              "name": "askPerUnitDenominator",
              "type": "uint128"
            },
            {
              "internalType": "address",
              "name": "onlyTo",
              "type": "address"
            },
            {
              "internalType": "bool",
              "name": "partialAllowed",
              "type": "bool"
            }
          ],
          "internalType": "struct SimpleOrderStrategy.SimpleOrderStrategyData",
          "name": "data",
          "type": "tuple"
        }
      ],
      "stateMutability": "view",
      "type": "function"
    },
    {
      "inputs": [],
      "name": "marketplace",
      "outputs": [
        {
          "internalType": "contract IMarketplaceV1",
          "name": "",
          "type": "address"
        }
      ],
      "stateMutability": "view",
      "type": "function"
    },
    {
      "inputs": [
        {
          "internalType": "bytes32",
          "name": "orderHash",
          "type": "bytes32"
        }
      ],
      "name": "migrate",
      "outputs": [
        {
          "internalType": "bool",
          "name": "",
          "type": "bool"
        }
      ],
      "stateMutability": "nonpayable",
      "type": "function"
    },
    {
      "inputs": [],
      "name": "minimumListingTime",
      "outputs": [
        {
          "internalType": "uint256",
          "name": "",
          "type": "uint256"
        }
      ],
      "stateMutability": "view",
      "type": "function"
    },
    {
      "inputs": [
        {
          "internalType": "bytes32",
          "name": "",
          "type": "bytes32"
        }
      ],
      "name": "orderStrategyData",
      "outputs": [
        {
          "internalType": "uint256",
          "name": "quantity",
          "type": "uint256"
        },
        {
          "internalType": "uint256",
          "name": "startsAt",
          "type": "uint256"
        },
        {
          "internalType": "uint256",
          "name": "expiresAt",
          "type": "uint256"
        },
        {
          "internalType": "uint128",
          "name": "askPerUnitNominator",
          "type": "uint128"
        },
        {
          "internalType": "uint128",
          "name": "askPerUnitDenominator",
          "type": "uint128"
        },
        {
          "internalType": "address",
          "name": "onlyTo",
          "type": "address"
        },
        {
          "internalType": "bool",
          "name": "partialAllowed",
          "type": "bool"
        }
      ],
      "stateMutability": "view",
      "type": "function"
    },
    {
      "inputs": [],
      "name": "owner",
      "outputs": [
        {
          "internalType": "address",
          "name": "",
          "type": "address"
        }
      ],
      "stateMutability": "view",
      "type": "function"
    },
    {
      "inputs": [],
      "name": "previousStrategy",
      "outputs": [
        {
          "internalType": "contract SimpleOrderStrategy",
          "name": "",
          "type": "address"
        }
      ],
      "stateMutability": "view",
      "type": "function"
    },
    {
      "inputs": [],
      "name": "renounceOwnership",
      "outputs": [],
      "stateMutability": "nonpayable",
      "type": "function"
    },
    {
      "inputs": [
        {
          "internalType": "address",
          "name": "_marketplace",
          "type": "address"
        }
      ],
      "name": "setMarketplace",
      "outputs": [],
      "stateMutability": "nonpayable",
      "type": "function"
    },
    {
      "inputs": [
        {
          "internalType": "uint256",
          "name": "_minimumListingTime",
          "type": "uint256"
        }
      ],
      "name": "setMinListingTime",
      "outputs": [],
      "stateMutability": "nonpayable",
      "type": "function"
    },
    {
      "inputs": [
        {
          "internalType": "address",
          "name": "_previousStrategy",
          "type": "address"
        }
      ],
      "name": "setPreviousStrategy",
      "outputs": [],
      "stateMutability": "nonpayable",
      "type": "function"
    },
    {
      "inputs": [
        {
          "internalType": "bytes32",
          "name": "orderHash",
          "type": "bytes32"
        }
      ],
      "name": "strategyExists",
      "outputs": [
        {
          "internalType": "bool",
          "name": "exists",
          "type": "bool"
        }
      ],
      "stateMutability": "view",
      "type": "function"
    },
    {
      "inputs": [
        {
          "internalType": "address",
          "name": "newOwner",
          "type": "address"
        }
      ],
      "name": "transferOwnership",
      "outputs": [],
      "stateMutability": "nonpayable",
      "type": "function"
    },
    {
      "inputs": [
        {
          "internalType": "bytes32",
          "name": "orderHash",
          "type": "bytes32"
        },
        {
          "components": [
            {
              "internalType": "address",
              "name": "buyer",
              "type": "address"
            },
            {
              "internalType": "uint256",
              "name": "quantity",
              "type": "uint256"
            }
          ],
          "internalType": "struct SimpleOrderStrategy.Fill",
          "name": "_fill",
          "type": "tuple"
        }
      ],
      "name": "validateFill",
      "outputs": [],
      "stateMutability": "view",
      "type": "function"
    }
  ],
  "bytecode": "0x60806040523480156200001157600080fd5b5060405162001cb638038062001cb6833981016040819052620000349162000276565b6200003f3362000134565b600280546001600160a01b038086166001600160a01b031992831617909255600384905560018054928416929091169190911790556200007f8462000184565b6040516001600160a01b03841681527f9311bb568726f0d846fe2cc4f9f3f08c1e4f48f7fa5506307747187ad7b381329060200160405180910390a16040518281527fe4f19d6edb3b44ef238e6da32f9b93d8409f0a34967bdec16e551b996ecbad309060200160405180910390a16040516001600160a01b03821681527f054eb70141d84dc2afd530f78566c5374411183d38a98fe66cf9d70f62b241729060200160405180910390a150505050620002ca565b600080546001600160a01b038381166001600160a01b0319831681178455604051919092169283917f8be0079c531659141344cd1fd0a4f28419497f9722a3daafe3b4186f6b6457e09190a35050565b6000546001600160a01b03163314620001e45760405162461bcd60e51b815260206004820181905260248201527f4f776e61626c653a2063616c6c6572206973206e6f7420746865206f776e657260448201526064015b60405180910390fd5b6001600160a01b0381166200024b5760405162461bcd60e51b815260206004820152602660248201527f4f776e61626c653a206e6577206f776e657220697320746865207a65726f206160448201526564647265737360d01b6064820152608401620001db565b620002568162000134565b50565b80516001600160a01b03811681146200027157600080fd5b919050565b600080600080608085870312156200028d57600080fd5b620002988562000259565b9350620002a86020860162000259565b925060408501519150620002bf6060860162000259565b905092959194509250565b6119dc80620002da6000396000f3fe608060405234801561001057600080fd5b50600436106101515760003560e01c8063895590b1116100cd578063cd2494c311610081578063e19b8ee311610066578063e19b8ee3146104c4578063f2fde38b146104d7578063fb1bc054146104ea57600080fd5b8063cd2494c314610468578063d5b7008b1461047b57600080fd5b806398b6376d116100b257806398b6376d14610357578063abbf8b9a1461038e578063abc8c7af1461045557600080fd5b8063895590b11461031f5780638da5cb5b1461033257600080fd5b806362a1ce4e11610124578063715018a611610109578063715018a6146102e15780637260409f146102e957806373ad6c2d1461030c57600080fd5b806362a1ce4e1461025557806369ba90de146102d857600080fd5b8063302bacf31461015657806332229c571461017c57806348405eaf146101915780635b37e15014610242575b600080fd5b610169610164366004611642565b6104fd565b6040519081526020015b60405180910390f35b61018f61018a3660046116be565b610619565b005b6101f961019f366004611629565b6004602081905260009182526040909120805460018201546002830154600384015493909401549193909290916001600160801b0380831692600160801b900416906001600160a01b03811690600160a01b900460ff1687565b604080519788526020880196909652948601939093526001600160801b0391821660608601521660808401526001600160a01b031660a0830152151560c082015260e001610173565b610169610250366004611642565b610858565b610268610263366004611732565b610b2c565b6040516101739190600060e08201905082518252602083015160208301526040830151604083015260608301516001600160801b03808216606085015280608086015116608085015250506001600160a01b0360a08401511660a083015260c0830151151560c083015292915050565b61016960035481565b61018f610bd8565b6102fc6102f7366004611629565b610c3e565b6040519015158152602001610173565b61018f61031a3660046115bc565b610cc5565b61018f61032d3660046115bc565b610d81565b6000546001600160a01b03165b6040516001600160a01b039091168152602001610173565b61036a610365366004611732565b610e36565b6040805182516001600160a01b031681526020928301519281019290925201610173565b61026861039c366004611629565b6040805160e081018252600080825260208201819052918101829052606081018290526080810182905260a0810182905260c081019190915250600090815260046020818152604092839020835160e0810185528154815260018201549281019290925260028101549382019390935260038301546001600160801b038082166060840152600160801b9091041660808201529101546001600160a01b03811660a0830152600160a01b900460ff16151560c082015290565b60025461033f906001600160a01b031681565b61018f610476366004611629565b610e85565b61048e610489366004611642565b610f64565b6040805195865260208601949094526001600160a01b03928316938501939093521660608301521515608082015260a001610173565b6102fc6104d2366004611629565b611040565b61018f6104e53660046115bc565b61131f565b60015461033f906001600160a01b031681565b6002546000906001600160a01b0316331461055f5760405162461bcd60e51b815260206004820152601860248201527f53533a3a6f6e6c794d61726b6574706c6163653a206e6f74000000000000000060448201526064015b60405180910390fd5b5050506000818152600460208181526040808420815160e081018352815480825260018301805483870152600284018054958401959095526003840180546001600160801b038082166060870152600160801b90910416608085015284880180546001600160a01b03811660a087015260ff600160a01b820416151560c090960195909552998952969095529186905592859055908490559290915574ffffffffffffffffffffffffffffffffffffffffff191690915590565b60008281526004602052604090206002810154421180159061063f575042816001015411155b61068b5760405162461bcd60e51b815260206004820152601c60248201527f53533a3a76616c696461746546696c6c3a2074696d65626f756e6473000000006044820152606401610556565b60048101546001600160a01b0316156106ff57600481015482516001600160a01b039081169116146106ff5760405162461bcd60e51b815260206004820152601f60248201527f53533a3a76616c696461746546696c6c3a206e6f7420726563697069656e74006044820152606401610556565b6000826020015111801561071857508054602083015111155b6107645760405162461bcd60e51b815260206004820152601a60248201527f53533a3a76616c696461746546696c6c3a207175616e746974790000000000006044820152606401610556565b6004810154600160a01b900460ff166107cb5780546020830151146107cb5760405162461bcd60e51b815260206004820152601960248201527f53533a3a76616c696461746546696c6c3a207061727469616c000000000000006044820152606401610556565b600381015460208301516000916001600160801b03600160801b82048116926107f69290911661192f565b610800919061190d565b9050600081116108525760405162461bcd60e51b815260206004820152601b60248201527f53533a3a76616c696461746546696c6c3a207061796d656e74203000000000006044820152606401610556565b50505050565b6002546000906001600160a01b031633146108b55760405162461bcd60e51b815260206004820152601860248201527f53533a3a6f6e6c794d61726b6574706c6163653a206e6f7400000000000000006044820152606401610556565b60006108f684848080601f016020809104026020016040519081016040528093929190818152602001838380828437600092019190915250610b2c92505050565b905080602001516000141561090c574260208201525b604081015161091e5760001960408201525b80511580159061093b5750600081606001516001600160801b0316115b80156109545750600081608001516001600160801b0316115b8015610964575042816020015110155b801561098557508060400151600354826020015161098291906118f5565b11155b80156109c55750600081608001516001600160801b031682606001516001600160801b031683600001516109b9919061192f565b6109c3919061190d565b115b610a115760405162461bcd60e51b815260206004820152601a60248201527f53533a3a76616c69646174654f726465723a20696e76616c69640000000000006044820152606401610556565b600085815260046020818152604092839020845180825591850151600182018190558486015160028301819055606087015160808801516001600160801b03818116600160801b0290831617600386015560a089015194909601805460c08a0151801515600160a01b0274ffffffffffffffffffffffffffffffffffffffffff199092166001600160a01b038816179190911790915596518c977f45fc504d7592fc91308926c18f10d3ec4ed2034b77a8cdece596cd0b7ffdd4b297610b1b97969092909190968752602087019590955260408601939093526001600160801b0391821660608601521660808401526001600160a01b031660a0830152151560c082015260e00190565b60405180910390a251949350505050565b6040805160e081018252600080825260208201819052918101829052606081018290526080810182905260a0810182905260c0810191909152600080600080600080600088806020019051810190610b849190611882565b6040805160e0810182529788526020880196909652948601939093526001600160801b0391821660608601521660808401526001600160a01b031660a0830152151560c08201529998505050505050505050565b6000546001600160a01b03163314610c325760405162461bcd60e51b815260206004820181905260248201527f4f776e61626c653a2063616c6c6572206973206e6f7420746865206f776e65726044820152606401610556565b610c3c6000611401565b565b60008181526004602052604081206002015415801590610c6e575060008281526004602052604090206001015415155b8015610c9357506000828152600460205260409020600301546001600160801b031615155b8015610cbf5750600082815260046020526040902060030154600160801b90046001600160801b031615155b92915050565b6000546001600160a01b03163314610d1f5760405162461bcd60e51b815260206004820181905260248201527f4f776e61626c653a2063616c6c6572206973206e6f7420746865206f776e65726044820152606401610556565b6002805473ffffffffffffffffffffffffffffffffffffffff19166001600160a01b0383169081179091556040519081527f9311bb568726f0d846fe2cc4f9f3f08c1e4f48f7fa5506307747187ad7b38132906020015b60405180910390a150565b6000546001600160a01b03163314610ddb5760405162461bcd60e51b815260206004820181905260248201527f4f776e61626c653a2063616c6c6572206973206e6f7420746865206f776e65726044820152606401610556565b6001805473ffffffffffffffffffffffffffffffffffffffff19166001600160a01b0383169081179091556040519081527f054eb70141d84dc2afd530f78566c5374411183d38a98fe66cf9d70f62b2417290602001610d76565b604080518082019091526000808252602082015260008083806020019051810190610e6191906115e0565b604080518082019091526001600160a01b0390921682526020820152949350505050565b6000546001600160a01b03163314610edf5760405162461bcd60e51b815260206004820181905260248201527f4f776e61626c653a2063616c6c6572206973206e6f7420746865206f776e65726044820152606401610556565b60008111610f2f5760405162461bcd60e51b815260206004820152601860248201527f53533a3a7365744d696e4c54696d653a20696e76616c696400000000000000006044820152606401610556565b60038190556040518181527fe4f19d6edb3b44ef238e6da32f9b93d8409f0a34967bdec16e551b996ecbad3090602001610d76565b60025460009081908190819081906001600160a01b03163314610fc95760405162461bcd60e51b815260206004820152601860248201527f53533a3a6f6e6c794d61726b6574706c6163653a206e6f7400000000000000006044820152606401610556565b600061100a88888080601f016020809104026020016040519081016040528093929190818152602001838380828437600092019190915250610e3692505050565b90506110168982610619565b60008060006110258c8561145e565b9551919e909d50909b508b9a50939850929650505050505050565b6001546000906001600160a01b0316158061105f575061105f82610c3e565b1561106c57506000919050565b6001546040517fe19b8ee3000000000000000000000000000000000000000000000000000000008152600481018490526001600160a01b039091169063e19b8ee390602401602060405180830381600087803b1580156110cb57600080fd5b505af11580156110df573d6000803e3d6000fd5b505050506040513d601f19601f82011682018060405250810190611103919061160e565b506001546040517fabbf8b9a000000000000000000000000000000000000000000000000000000008152600481018490526000916001600160a01b03169063abbf8b9a9060240160e06040518083038186803b15801561116257600080fd5b505afa158015611176573d6000803e3d6000fd5b505050506040513d601f19601f8201168201806040525081019061119a91906117e3565b6000848152600460208181526040928390208451815590840151600180830191909155838501516002830155606085015160808601516001600160801b03908116600160801b02911617600383015560a085015191909201805460c08601511515600160a01b0274ffffffffffffffffffffffffffffffffffffffffff199091166001600160a01b03938416171790559054915192935085927f133905d32572fd56daa86c83389068991dd493790d0c7151589e58153f3e55979261126f9216906001600160a01b0391909116815260200190565b60405180910390a2827f45fc504d7592fc91308926c18f10d3ec4ed2034b77a8cdece596cd0b7ffdd4b2826000015183602001518460400151856060015186608001518760a001518860c0015160405161130e9796959493929190968752602087019590955260408601939093526001600160801b0391821660608601521660808401526001600160a01b031660a0830152151560c082015260e00190565b60405180910390a250600192915050565b6000546001600160a01b031633146113795760405162461bcd60e51b815260206004820181905260248201527f4f776e61626c653a2063616c6c6572206973206e6f7420746865206f776e65726044820152606401610556565b6001600160a01b0381166113f55760405162461bcd60e51b815260206004820152602660248201527f4f776e61626c653a206e6577206f776e657220697320746865207a65726f206160448201527f64647265737300000000000000000000000000000000000000000000000000006064820152608401610556565b6113fe81611401565b50565b600080546001600160a01b0383811673ffffffffffffffffffffffffffffffffffffffff19831681178455604051919092169283917f8be0079c531659141344cd1fd0a4f28419497f9722a3daafe3b4186f6b6457e09190a35050565b6000828152600460208181526040808420815160e0810183528154815260018201548185015260028201549281019290925260038101546001600160801b0380821660608501819052600160801b909204166080840181905291909401546001600160a01b03811660a0840152600160a01b900460ff16151560c08301529185015184938493849290916114f2919061192f565b6114fc919061190d565b9050600086602001518360000151611514919061194e565b90508015801561156957600089815260046020819052604082208281556001810183905560028101839055600381019290925501805474ffffffffffffffffffffffffffffffffffffffffff1916905561157b565b60008981526004602052604090208290555b60209790970151919891975090945050505050565b805180151581146115a057600080fd5b919050565b80516001600160801b03811681146115a057600080fd5b6000602082840312156115ce57600080fd5b81356115d981611991565b9392505050565b600080604083850312156115f357600080fd5b82516115fe81611991565b6020939093015192949293505050565b60006020828403121561162057600080fd5b6115d982611590565b60006020828403121561163b57600080fd5b5035919050565b60008060006040848603121561165757600080fd5b83359250602084013567ffffffffffffffff8082111561167657600080fd5b818601915086601f83011261168a57600080fd5b81358181111561169957600080fd5b8760208285010111156116ab57600080fd5b6020830194508093505050509250925092565b60008082840360608112156116d257600080fd5b833592506040601f19820112156116e857600080fd5b506040516040810181811067ffffffffffffffff8211171561170c5761170c61197b565b604052602084013561171d81611991565b81526040939093013560208401525092909150565b60006020828403121561174457600080fd5b813567ffffffffffffffff8082111561175c57600080fd5b818401915084601f83011261177057600080fd5b8135818111156117825761178261197b565b604051601f8201601f19908116603f011681019083821181831017156117aa576117aa61197b565b816040528281528760208487010111156117c357600080fd5b826020860160208301376000928101602001929092525095945050505050565b600060e082840312156117f557600080fd5b60405160e0810181811067ffffffffffffffff821117156118185761181861197b565b8060405250825181526020830151602082015260408301516040820152611841606084016115a5565b6060820152611852608084016115a5565b608082015260a083015161186581611991565b60a082015261187660c08401611590565b60c08201529392505050565b600080600080600080600060e0888a03121561189d57600080fd5b8751965060208801519550604088015194506118bb606089016115a5565b93506118c9608089016115a5565b925060a08801516118d981611991565b91506118e760c08901611590565b905092959891949750929550565b6000821982111561190857611908611965565b500190565b60008261192a57634e487b7160e01b600052601260045260246000fd5b500490565b600081600019048311821515161561194957611949611965565b500290565b60008282101561196057611960611965565b500390565b634e487b7160e01b600052601160045260246000fd5b634e487b7160e01b600052604160045260246000fd5b6001600160a01b03811681146113fe57600080fdfea2646970667358221220a48e860b4e4206717ccc098c650d05569ba8994d0c913a777b2049fae3d90a9564736f6c63430008070033",
  "linkReferences": {},
  "deployedLinkReferences": {}
}