{
  "_format": "hh-sol-artifact-1",
  "contractName": "StrategyRegistry",
  "sourceName": "contracts/StrategyRegistry.sol",
  "abi": [
    {
      "inputs": [
        {
          "internalType": "address",
          "name": "_governor",
          "type": "address"
        }
      ],
      "stateMutability": "nonpayable",
      "type": "constructor"
    },
    {
      "anonymous": false,
      "inputs": [
        {
          "indexed": true,
          "internalType": "address",
          "name": "previousOwner",
          "type": "address"
        },
        {
          "indexed": true,
          "internalType": "address",
          "name": "newOwner",
          "type": "address"
        }
      ],
      "name": "OwnershipTransferred",
      "type": "event"
    },
    {
      "anonymous": false,
      "inputs": [
        {
          "indexed": true,
          "internalType": "bytes32",
          "name": "id",
          "type": "bytes32"
        },
        {
          "indexed": true,
          "internalType": "address",
          "name": "newStrategy",
          "type": "address"
        }
      ],
      "name": "StrategyChanged",
      "type": "event"
    },
    {
      "inputs": [],
      "name": "STRATEGY_LINEAR",
      "outputs": [
        {
          "internalType": "bytes32",
          "name": "",
          "type": "bytes32"
        }
      ],
      "stateMutability": "view",
      "type": "function"
    },
    {
      "inputs": [],
      "name": "STRATEGY_SIMPLE",
      "outputs": [
        {
          "internalType": "bytes32",
          "name": "",
          "type": "bytes32"
        }
      ],
      "stateMutability": "view",
      "type": "function"
    },
    {
      "inputs": [
        {
          "internalType": "bytes32",
          "name": "id",
          "type": "bytes32"
        },
        {
          "internalType": "address",
          "name": "addr",
          "type": "address"
        }
      ],
      "name": "addStrategy",
      "outputs": [],
      "stateMutability": "nonpayable",
      "type": "function"
    },
    {
      "inputs": [],
      "name": "owner",
      "outputs": [
        {
          "internalType": "address",
          "name": "",
          "type": "address"
        }
      ],
      "stateMutability": "view",
      "type": "function"
    },
    {
      "inputs": [],
      "name": "renounceOwnership",
      "outputs": [],
      "stateMutability": "nonpayable",
      "type": "function"
    },
    {
      "inputs": [
        {
          "internalType": "bytes32",
          "name": "id",
          "type": "bytes32"
        },
        {
          "internalType": "address",
          "name": "addr",
          "type": "address"
        }
      ],
      "name": "setStrategy",
      "outputs": [],
      "stateMutability": "nonpayable",
      "type": "function"
    },
    {
      "inputs": [
        {
          "internalType": "uint256",
          "name": "",
          "type": "uint256"
        }
      ],
      "name": "strategies",
      "outputs": [
        {
          "internalType": "bytes32",
          "name": "",
          "type": "bytes32"
        }
      ],
      "stateMutability": "view",
      "type": "function"
    },
    {
      "inputs": [
        {
          "internalType": "bytes32",
          "name": "",
          "type": "bytes32"
        }
      ],
      "name": "strategyTarget",
      "outputs": [
        {
          "internalType": "address",
          "name": "",
          "type": "address"
        }
      ],
      "stateMutability": "view",
      "type": "function"
    },
    {
      "inputs": [
        {
          "internalType": "address",
          "name": "newOwner",
          "type": "address"
        }
      ],
      "name": "transferOwnership",
      "outputs": [],
      "stateMutability": "nonpayable",
      "type": "function"
    }
  ],
  "bytecode": "0x60c06040527fb4c34ccd96d70009be083eaea45c708dff031622381acfcf6e3d07039aca39bb6080527fd181dd98be0533fd6c6f083caf4a691d4f946e1c6c9682e4194032c0dad96acb60a05234801561005857600080fd5b5060405161090a38038061090a833981016040819052610077916101af565b6100803361008f565b610089816100df565b506101df565b600080546001600160a01b038381166001600160a01b0319831681178455604051919092169283917f8be0079c531659141344cd1fd0a4f28419497f9722a3daafe3b4186f6b6457e09190a35050565b6000546001600160a01b0316331461013e5760405162461bcd60e51b815260206004820181905260248201527f4f776e61626c653a2063616c6c6572206973206e6f7420746865206f776e657260448201526064015b60405180910390fd5b6001600160a01b0381166101a35760405162461bcd60e51b815260206004820152602660248201527f4f776e61626c653a206e6577206f776e657220697320746865207a65726f206160448201526564647265737360d01b6064820152608401610135565b6101ac8161008f565b50565b6000602082840312156101c157600080fd5b81516001600160a01b03811681146101d857600080fd5b9392505050565b60805160a051610707610203600039600060f30152600061017c01526107076000f3fe608060405234801561001057600080fd5b50600436106100a35760003560e01c8063a14cbb1211610076578063d574ea3d1161005b578063d574ea3d14610164578063e0dd9a8114610177578063f2fde38b1461019e57600080fd5b8063a14cbb121461013e578063d20896271461015157600080fd5b806318459c85146100a85780636606b2a3146100ee578063715018a6146101235780638da5cb5b1461012d575b600080fd5b6100d16100b636600461068c565b6002602052600090815260409020546001600160a01b031681565b6040516001600160a01b0390911681526020015b60405180910390f35b6101157f000000000000000000000000000000000000000000000000000000000000000081565b6040519081526020016100e5565b61012b6101b1565b005b6000546001600160a01b03166100d1565b61012b61014c3660046106a5565b61021c565b61012b61015f3660046106a5565b610366565b61011561017236600461068c565b610459565b6101157f000000000000000000000000000000000000000000000000000000000000000081565b61012b6101ac36600461066a565b61047a565b6000546001600160a01b031633146102105760405162461bcd60e51b815260206004820181905260248201527f4f776e61626c653a2063616c6c6572206973206e6f7420746865206f776e657260448201526064015b60405180910390fd5b61021a600061055c565b565b6000546001600160a01b031633146102765760405162461bcd60e51b815260206004820181905260248201527f4f776e61626c653a2063616c6c6572206973206e6f7420746865206f776e65726044820152606401610207565b6000828152600260205260409020546001600160a01b03166103005760405162461bcd60e51b815260206004820152602360248201527f537472617465677952656769737472793a3a2073657453747261746567793a2060448201527f6e6f7400000000000000000000000000000000000000000000000000000000006064820152608401610207565b600082815260026020526040808220805473ffffffffffffffffffffffffffffffffffffffff19166001600160a01b0385169081179091559051909184917f779547f0e6b4b6e345d49f0562fd90427f338e1264be6f9b24ddd41a469849569190a35050565b6000546001600160a01b031633146103c05760405162461bcd60e51b815260206004820181905260248201527f4f776e61626c653a2063616c6c6572206973206e6f7420746865206f776e65726044820152606401610207565b6000828152600260205260409020546001600160a01b03161561044b5760405162461bcd60e51b815260206004820152602760248201527f537472617465677952656769737472793a3a2061646453747261746567793a2060448201527f616c7265616479000000000000000000000000000000000000000000000000006064820152608401610207565b61045582826105b9565b5050565b6001818154811061046957600080fd5b600091825260209091200154905081565b6000546001600160a01b031633146104d45760405162461bcd60e51b815260206004820181905260248201527f4f776e61626c653a2063616c6c6572206973206e6f7420746865206f776e65726044820152606401610207565b6001600160a01b0381166105505760405162461bcd60e51b815260206004820152602660248201527f4f776e61626c653a206e6577206f776e657220697320746865207a65726f206160448201527f64647265737300000000000000000000000000000000000000000000000000006064820152608401610207565b6105598161055c565b50565b600080546001600160a01b0383811673ffffffffffffffffffffffffffffffffffffffff19831681178455604051919092169283917f8be0079c531659141344cd1fd0a4f28419497f9722a3daafe3b4186f6b6457e09190a35050565b600180548082019091557fb10e2d527612073b26eecdfd717e6a320cf44b4afac2b0732d9fcbe2b7fa0cf601829055600082815260026020526040808220805473ffffffffffffffffffffffffffffffffffffffff19166001600160a01b0385169081179091559051909184917f779547f0e6b4b6e345d49f0562fd90427f338e1264be6f9b24ddd41a469849569190a35050565b80356001600160a01b038116811461066557600080fd5b919050565b60006020828403121561067c57600080fd5b6106858261064e565b9392505050565b60006020828403121561069e57600080fd5b5035919050565b600080604083850312156106b857600080fd5b823591506106c86020840161064e565b9050925092905056fea264697066735822122001b79f1ed45353b735ff25ea1af9290b2a4f31a7a5ae72a18ce740e71a727ca864736f6c63430008070033",
  "linkReferences": {},
  "deployedLinkReferences": {}
}